:100000000C9429010C9451010C9451010C94760725
:100010000C9476070C9476070C9451010C945101C2
:100020000C9451010C9451010C9451010C94510108
:100030000C9451010C9451010C9451010C945101F8
:100040000C9497020C9451010C9449040C942304D1
:100050000C9451010C9451010C9451010C945101D8
:100060000C9451010C94510141542B434D474C3D8C
:100070002252454320554E52454144222C310D0A0F
:100080000041542B434D474C3D2252454320554E91
:1000900052454144222C310D0A000D0A0041542BD7
:1000A000434D47523D0041542B434D47463D310D92
:1000B0000A000D0041542B434D47443D0000000011
:1000C00000240027002A00000000080002010000B0
:1000D0000304070000000000000000005EBCE261B5
:1000E0003FDD83C29C7E20A3FD1F419DC3217FFC79
:1000F000A2401E5F01E3BD3E6082DC237D9FC142C2
:100100001CFEA0E1BF5D0380DE3C62BEE0025CDF5E
:1001100081633D7C22C09E1D43A1FF4618FAA4279F
:10012000799BC584DA3866E5BB5907DB856739BA40
:10013000E406581947A5FB7826C49A653BD987047D
:100140005AB8E6A7F91B45C6987A24F8A6441A9926
:10015000C7257B3A6486D85B05E7B98CD2306EED53
:10016000B3510F4E10F2AC2F7193CD114FADF37010
:100170002ECC92D38D6F31B2EC0E50AFF1134DCE29
:1001800090722C6D33D18F0C52B0EE326C8ED053F6
:100190000DEFB1F0AE4C1291CF2D73CA947628AB0F
:1001A000F517490856B4EA6937D58B5709EBB536C8
:1001B000688AD495CB2977F4AA4816E9B7550B88F5
:1001C000D6346A2B7597C94A14F6A8742AC89615AE
:1001D0004BA9F7B6E80A54D7896B35220D0A0041BE
:1001E000542B434D47533D220041542B434D47462A
:1001F0003D310D0A0041542B4350494E3F0D0A003A
:1002000041542B4346554E3D310D0A0041540D0AD1
:100210000000000000250028002B00000000002343
:100220000026002900040404040404040402020259
:100230000202020303030303030102040810204027
:1002400080010204081020010204081020000F1190
:10025000040C11241FBECFEFD8E0DEBFCDBF24E0D9
:10026000A2E9B2E001C01D92AF3BB207E1F712E094
:10027000A0E0B1E0E0E5FBE202C005900D92A239FA
:10028000B107D9F711E0C8E2D1E004C02197FE011F
:100290000E946B15C732D107C9F70E940E0C0C944F
:1002A0009B150C940000DC01ED91FC910190F08114
:1002B000E02D0994CF92DF92EF92FF920F931F935C
:1002C000CF93DF936C017A018B01C0E0D0E0CE15B3
:1002D000DF0589F0D8016D918D01D601ED91FC917A
:1002E0000190F081E02DC6010995892B11F47E0162
:1002F00002C02196ECCFC701DF91CF911F910F91E2
:10030000FF90EF90DF90CF900895089580E090E007
:100310000895FC01538D448D252F30E0842F90E00B
:10032000821B930B541710F0CF96089501970895F0
:10033000FC01918D828D981761F0828DDF01A80FED
:10034000B11D5D968C91928D9F5F9F73928F90E00F
:1003500008958FEF9FEF0895FC01918D828D98177E
:1003600031F0828DE80FF11D858D90E008958FEFBB
:100370009FEF0895FC01918D228D892F90E0805C84
:100380009F4F821B91098F73992708958CEA93E000
:100390000E94BA0121E0892B09F420E0822F089500
:1003A000FC01848DDF01A80FB11DA35ABF4F2C9112
:1003B000848D90E001968F739927848FA689B789E1
:1003C0002C93A089B1898C9180648C93938D848DBA
:1003D000981306C00288F389E02D80818F7D808389
:1003E0000895EF92FF920F931F93CF93DF93EC0149
:1003F00081E0888F9B8D8C8D981305C0E889F989E1
:10040000808185FD24C0F62E0B8D10E00F5F1F4FFD
:100410000F731127E02E8C8DE8120CC00FB607FC6D
:10042000FACFE889F989808185FFF5CFCE010E9456
:10043000D001F1CF8B8DFE01E80FF11DE35AFF4F84
:10044000F0820B8FEA89FB898081806207C0EE8988
:10045000FF896083E889F98980818064808381E0F5
:1004600090E0DF91CF911F910F91FF90EF90089551
:10047000CF93DF93EC01888D8823C9F0EA89FB894B
:10048000808185FD05C0A889B9898C9186FD0FC042
:100490000FB607FCF5CF808185FFF2CFA889B98917
:1004A0008C9185FFEDCFCE010E94D001E7CFDF9187
:1004B000CF91089580E090E0892B29F00E94C60139
:1004C00081110C94000008950E9471153FB7F894B3
:1004D0008091680390916903A0916A03B0916B03C6
:1004E00026B5A89B05C02F3F19F00196A11DB11D8F
:1004F0003FBFBA2FA92F982F8827820F911DA11DCA
:10050000B11DBC01CD0142E0660F771F881F991F06
:100510004A95D1F708952FB7F894609164037091CC
:10052000650380916603909167032FBF08951F9222
:100530000F920FB60F9211242F933F938F939F9397
:10054000AF93BF938091640390916503A09166037C
:10055000B09167033091630323E0230F2D3720F41C
:100560000196A11DB11D05C026E8230F0296A11D0D
:10057000B11D209363038093640390936503A0935C
:100580006603B09367038091680390916903A0911B
:100590006A03B0916B030196A11DB11D809368039E
:1005A00090936903A0936A03B0936B03BF91AF91DB
:1005B0009F918F913F912F910F900FBE0F901F90A1
:1005C00018956115710579F0FB0101900020E9F79C
:1005D0003197AF01461B570BDC01ED91FC91028076
:1005E000F381E02D099480E090E008954F925F92AE
:1005F0006F927F92EF92FF920F931F93CF93DF93AF
:10060000CDB7DEB7A1970FB6F894DEBF0FBECDBF52
:100610007C01FA01CB0119A2223008F42AE08E01F4
:100620000F5D1F4F422E512C612C712CBF01A30175
:1006300092010E943515F901CA01015011096A3071
:1006400014F4605D01C0695CD8016C93232B242BEA
:10065000252B61F7B801C7010E94E102A1960FB6F0
:10066000F894DEBF0FBECDBFDF91CF911F910F91E8
:10067000FF90EF907F906F905F904F9008954F9212
:100680005F926F927F928F929F92AF92BF92CF9222
:10069000DF92EF92FF92CF93DF93EC016A017B012F
:1006A000B22E9A01AB01C701B6010E941C15882326
:1006B00019F069E371E027C026013701E89477F863
:1006C0002FEF3FEF4FE75FE7C301B2010E941C1518
:1006D00081110DC02FEF3FEF4FE75FE7C301B2017C
:1006E0000E94E51218161CF46DE371E00CC02FEFA8
:1006F0003FEF4FE75FE4C701B6010E9417151816D8
:100700009CF461E471E0CE01DF91CF91FF90EF9016
:10071000DF90CF90BF90AF909F908F907F906F9021
:100720005F904F900C94E1022FEF3FEF4FE75FECAB
:10073000C701B6010E94E51287FDE3CF20E030E05B
:10074000A901C701B6010E94E51287FF0AC06DE248
:10075000CE010E9453014C01F7FAF094F7F8F0949F
:1007600002C0812C912CA12C60E070E080E09FE31E
:10077000AB1441F020E030E040E251E40E947614F6
:10078000A394F6CF9B01AC01C701B6010E940A14E5
:100790002B013C010E94E8146B017C010E94EA12CB
:1007A0009B01AC01C301B2010E9409142B013C0161
:1007B0002AE0B701A601CE010E94F6027C01E80CF6
:1007C000F91CBB2031F06EE2CE010E945301E80E0D
:1007D000F91EDB2CDD2029F120E030E040E251E47D
:1007E000C301B2010E944B132B013C010E94E8148B
:1007F0004B01A12CB12C2AE0B501A401CE010E942D
:10080000F602E80EF91EC501B4010E94EA129B012E
:10081000AC01C301B2010E9409142B013C01DA941E
:10082000D9CFC701DF91CF91FF90EF90DF90CF90AC
:10083000BF90AF909F908F907F906F905F904F9000
:1008400008950C94E1021F920F920FB60F9211249B
:100850002F933F934F935F936F937F938F939F93C8
:10086000AF93BF93EF93FF938CEA93E00E94D00184
:10087000FF91EF91BF91AF919F918F917F916F9178
:100880005F914F913F912F910F900FBE0F901F904E
:1008900018951F920F920FB60F9211242F938F93DA
:1008A0009F93EF93FF93E091BC03F091BD03808190
:1008B000E091C203F091C30382FD12C09081809148
:1008C000C5038F5F8F732091C603821751F0E091AB
:1008D000C503F0E0E455FC4F958F8093C50301C03C
:1008E0008081FF91EF919F918F912F910F900FBE7B
:1008F0000F901F9018950895FC0190810180F2815E
:10090000E02D892F809560FF12C0F8942281822308
:1009100082838181892B8183A3E2B0E01197F1F773
:100920008281982B9283789487ED90E011C0F8949F
:100930002281822382838181892B8183AFEFB0E082
:100940001197F1F78281982B928378948FE090E051
:100950000197F1F70895A0914D04B0914E04ED91E7
:10096000FC9111970190F081E02D682FCD01099441
:1009700020914B0430914C042817390771F4909161
:10098000490480914A04981741F0E0914904F0E04D
:10099000E459FC4F808190E008958FEF9FEF089518
:1009A00008951F93CF93DF93DC015C962D913C91CA
:1009B0005D972115310539F481E090E013969C9301
:1009C0008E9312973DC05196ED91FC91529750969F
:1009D0009C915097892F80951FB75E964C915E979A
:1009E00041FB772770F941FD6095F89440817723AA
:1009F00011F0492B01C048234083E9012197F1F709
:100A000048E0508160FF02C0592B01C05823508339
:100A1000E9012197F1F76695415099F7772321F085
:100A200090818923808303C08081982B90831FBF8E
:100A30005C968D919C915D970197F1F721E030E0F4
:100A4000C901DF91CF911F91089520914B043091FE
:100A50004C042817390771F480914A042091490405
:100A600090E0805C9F4F821B910960E470E00E94DF
:100A70002115089580E090E0089520914B04309175
:100A80004C0428173907B9F49091490480914A041D
:100A9000981789F0E0914904F0E0E459FC4F808117
:100AA0002091490430E02F5F3F4F2F73332720936D
:100AB000490490E008958FEF9FEF0895CF93DF935F
:100AC000CDB7DEB729970FB6F894DEBF0FBECDBF06
:100AD000FC0120812031D1F0BE016F5F7F4F0E9469
:100AE000A10B882389F08D818F3361F020F48F3141
:100AF00059F489E00CC08F3519F08F3739F004C0F4
:100B00008BE005C08AE003C080E001C08CE029963C
:100B10000FB6F894DEBF0FBECDBFDF91CF91089521
:100B2000DC01E0E0615038F08D91E827F0E0E5521B
:100B3000FF4FE491F7CF8E2F0895CF92DF92EF927F
:100B4000FF920F931F93CF93DF931F92CDB7DEB722
:100B50006C01E62E08E010E0FF24F39461E08F2D95
:100B60008E2109F460E0C60149830E947C04FF0CD9
:100B70000150110949810115110581F7411115C075
:100B8000F894D6011196ED91FC91129791818C9178
:100B90008095892381831196ED91FC911297928122
:100BA0008C9180958923828378940F90DF91CF91E7
:100BB0001F910F91FF90EF90DF90CF900895CF920B
:100BC000DF92EF92FF920F931F93CF93DF931F92C9
:100BD000CDB7DEB78C01F62E40E065E579830E9443
:100BE0009D05CF2C7981D72E760188E0E80EF11C87
:100BF000F60161916F0140E0C8010E949D05CE148D
:100C0000DF04B1F70F90DF91CF911F910F91FF900B
:100C1000EF90DF90CF900895FC0190810180F281E8
:100C2000E02DF8948181892B81832281892F809501
:100C300028232283A7E0B0E01197F1F721818223D6
:100C40008183A3E2B0E01197F1F780817894EFEC13
:100C5000F0E03197F1F7982381E009F480E00895FE
:100C6000FC0190810180F281E02DF8948181292F8F
:100C700020958223818378948DE743E050E0815072
:100C800021F1DA011197F1F730813923C1F3F8949A
:100C90008281822382838181892B81837894ABE74F
:100CA000B7E01197F1F7F894818128232183A3E11C
:100CB000B1E01197F1F78081982381E009F080E09D
:100CC0007894E3E6F6E03197F1F70895AF92BF929A
:100CD000CF92DF92EF92FF920F931F93CF93DF9308
:100CE0001F92CDB7DEB75C01D62EE72EFC018585BD
:100CF000811105C0C5010E943006811106C0F501B1
:100D000013861586148680E065C040E060EFC5015B
:100D10000E949D0501E0F12CC12C11E0C5010E944B
:100D20000C06682FC50169830E940C066981613039
:100D300019F48130B9F433C04F2D50E068131BC053
:100D4000F5018385181730F4E40FF51F83818023A4
:100D500049F402C0181731F060E0193058F4F50179
:100D6000148708C0F501EF0DF11D8381802B83836B
:100D700061E009C0C12EF501E40FF51F9381802FBA
:100D8000809589238383C5010E947C041F5F000F27
:100D900011F4F39401E0F7E0FF1508F0BFCF113430
:100DA00008F4ADCFF501C386C11002C081E085878C
:100DB000F5018381882309F4A2CFD5011396ED2D87
:100DC000FE2D9501255F3F4F8D918193A217B307AB
:100DD000D9F781E00F90DF91CF911F910F91FF9094
:100DE000EF90DF90CF90BF90AF9008950F931F9337
:100DF000CF93DF938C01D62FE0915404F0915504EA
:100E0000138615861486DF011B9633961E92AE1745
:100E1000BF07E1F7C0E0B8018091540490915504F8
:100E20000E946606811102C080E010C0CD130AC086
:100E300067E0C8010E949005F8019781891302C0FC
:100E400081E004C0CF5FDC1778F3E5CFDF91CF916D
:100E50001F910F910895CF93DF93FC012491EC0132
:100E60002196222331F0FC0184910E94AB04CE0133
:100E7000F4CFDF91CF9108950F931F93CF93DF931A
:100E8000EC018C01FE0101900020E9F73197EC1B89
:100E9000FD0BC8018C1B9D0B8E179F0730F4F801CA
:100EA00081918F010E94AB04EDCFDF91CF911F9113
:100EB0000F91089580914D0490914E04DC01ED91C5
:100EC000FC910084F185E02D09940E945A07892B3A
:100ED00061F080914D0490914E04DC01ED91FC9104
:100EE0000284F385E02D0995F0CF08951F920F92AB
:100EF0000FB60F9211242F933F934F935F936F93ED
:100F00007F938F939F93AF93BF93EF93FF93E09162
:100F10004B04F0914C04309709F451C0968DA6858E
:100F2000B785858591FF04C09C91892329F447C02A
:100F30009C91892309F043C0A389B4899C91858938
:100F4000809589238C93868997890197F1F7608D25
:100F5000718DA685B785558538E020E0CB010197D6
:100F6000F1F7822F90E095958795282F4C91452396
:100F700009F02068315091F7868D81FD2095809190
:100F80004A0490E001968F739927309149043817ED
:100F900049F0A0914A04B0E0A459BC4F2C9380932F
:100FA0004A0403C0868D8160868F828D938D019760
:100FB000F1F7A389B4899C918589892B8C93FF9142
:100FC000EF91BF91AF919F918F917F916F915F91C1
:100FD0004F913F912F910F900FBE0F901F9018953A
:100FE000E0914B04F0914C04E817F90769F4A389E8
:100FF000B4899C918589809589238C9310924C04A7
:1010000010924B0481E0089580E0089590E0FC0187
:10101000E953FF4F3491FC01E75CFD4F2491FC0143
:10102000EB5DFD4FE491EE2309F43BC0332339F12E
:10103000333091F038F43130A9F0323001F584B515
:101040008F7D12C0373091F03830A1F03430B9F4D0
:10105000809180008F7D03C0809180008F77809386
:1010600080000DC084B58F7784BD09C08091B00029
:101070008F7703C08091B0008F7D8093B000F0E047
:10108000EE0FFF1FEF5EFD4FA591B4918FB7F8945F
:10109000EC91611103C020952E2301C02E2B2C93BF
:1010A0008FBF0895CF93DF93EC0160E08E810E94A3
:1010B000060861E08E810E94060860E08E810E9431
:1010C00006088BE891E00197F1F7DF91CF91089541
:1010D000CF92DF92EF92FF920F931F93CF93DF9304
:1010E0007C016C0187E0C80ED11CC0E0D0E0062F67
:1010F00010E0B8010C2E02C0759567950A94E2F7CE
:101100006170F60181916F010E9406082196C4303A
:10111000D10579F7C701DF91CF911F910F91FF9012
:10112000EF90DF90CF900C945208CF92DF92EF9225
:10113000FF920F931F93CF93DF93EC01F62E642F52
:101140008C810E9406088D818F3F19F060E00E941B
:1011500006088F850F2D10E084FF25C06E0187E003
:10116000C80ED11CE12CF12CB8010E2C02C07595D3
:1011700067950A94E2F76170F60181916F010E9410
:101180000608FFEFEF1AFF0A88E0E816F10461F79E
:10119000CE01DF91CF911F910F91FF90EF90DF90E3
:1011A000CF900C945208B80184E0759567958A95A4
:1011B000E1F7CE010E9468086F2DCE01DF91CF913B
:1011C0001F910F91FF90EF90DF90CF900C946808E3
:1011D00041E00E94950881E090E0089540E00C9481
:1011E0009508CF93DF9390E0FC01E75CFD4F2491DD
:1011F000FC01EB5DFD4F8491882361F190E0880F45
:10120000991FFC01E354FF4FC591D491FC01EF5E9F
:10121000FD4FA591B491611109C09FB7F8948881E1
:10122000209582238883EC912E230BC0623061F4D9
:101230009FB7F8943881822F809583238883EC911F
:101240002E2B2C939FBF06C08FB7F894E8812E2BCE
:1012500028838FBFDF91CF9108958F929F92AF9295
:10126000BF92CF92DF92EF92FF926B017C010E94BE
:1012700066024B015C01C114D104E104F104F1F0F8
:101280000E946602DC01CB0188199909AA09BB09F1
:10129000883E9340A105B10570F321E0C21AD10840
:1012A000E108F10888EE880E83E0981EA11CB11CAD
:1012B000C114D104E104F10419F7DDCFFF90EF90E0
:1012C000DF90CF90BF90AF909F908F900895CF9375
:1012D000DF93EC0189EE91E00E942B0786EF91E00D
:1012E0000E94160A882391F164EF71E080E090E09B
:1012F0000E942D090E9465078FED91E00E942B0747
:1013000088E792E00E943C078BED91E00E942B075A
:1013100082E892E00E94160A8823C1F068EE73E02A
:1013200080E090E00E942D09CE010E943C0764EF0E
:1013300071E080E090E00E942D098AE10E94AB04F8
:1013400086EF91E0DF91CF910C94160A80E0DF9157
:10135000CF9108954F925F926F927F929F92AF923A
:10136000BF92CF92DF92EF92FF920F931F93CF9392
:10137000DF935C018B010E948B022B013C01C12C8D
:10138000D12C7601C0E0D0E00E945A07892BD9F019
:1013900080914D0490914E04DC01ED91FC9102840A
:1013A000F385E02D0995982E0E948B026B017C013C
:1013B0009E012F5F3F4FCA0DDB1D9882201731071A
:1013C0002CF5E901E1CFC017D10704F50E948B028B
:1013D000DC01CB0184199509A609B7098938934125
:1013E000A105B10598F40E948B02DC01CB018C1998
:1013F0009D09AE09BF09893B9B40A105B10520F2BB
:10140000C114D104E104F10409F4BECFDF91CF91FE
:101410001F910F91FF90EF90DF90CF90BF90AF9012
:101420009F907F906F905F904F9008954F925F9242
:101430006F927F929F92AF92BF92CF92DF92EF9284
:10144000FF920F931F93CF93DF935C01EC01099000
:101450000020E9F72197C81BD90B0E948B022B01B2
:101460003C01C12CD12C760100E010E00E945A070B
:10147000892BF1F080914D0490914E04DC01ED91A7
:10148000FC910284F385E02D0995982E0E948B0231
:101490006B017C01F501E00FF11F8081891103C010
:1014A0000F5F1F4F02C000E010E00C171D0719F17D
:1014B0000E948B02DC01CB0184199509A609B709AA
:1014C00089389341A105B10510F080E017C00E9452
:1014D0008B02DC01CB018C199D09AE09BF09893B48
:1014E0009B40A105B10510F2C114D104E104F1043F
:1014F00009F4BCCFEACF0E94650781E0DF91CF916C
:101500001F910F91FF90EF90DF90CF90BF90AF9021
:101510009F907F906F905F904F900895DF92EF9231
:10152000FF920F931F93CF93DF93CDB7DEB7A097B2
:101530000FB6F894DEBF0FBECDBF8CE092E00E94E4
:101540002B0786EF91E00E94160A8823A1F180E024
:1015500092E00E942B0786EF91E00E94160A182F56
:10156000882349F1FE013196CE0181960E2FDF2EA0
:101570001192E817F907E1F783E0E82EF12C85EFE7
:1015800091E00E942B0760E270E0802F9D2D0E9469
:10159000AA0964E872E0802F9D2D0E948115892B95
:1015A00059F46CE271E080E090E00E942D0981E046
:1015B000E81AF10821F710E0812FA0960FB6F894F1
:1015C000DEBF0FBECDBFDF91CF911F910F91FF9076
:1015D000EF90DF900895EF92FF920F931F93CF93B8
:1015E000DF93EC01623018F08F8588608F876B8BFA
:1015F0001C8A80E48D8B80E18E8B80E58F8B61E08F
:101600008C810E94F1088D818F3F19F061E00E946A
:10161000F10861E08E810E94F1087E0187E0E80E0A
:10162000F11C00E010E08F8584FD03C084E090E0B1
:1016300002C088E090E0081719074CF461E0F70158
:1016400081917F010E94F1080F5F1F4FECCF8BE368
:101650009DE00197F1F760E08C810E94060860E050
:101660008E810E9406088D818F3F19F060E00E94F4
:1016700006086F8564FD1DC063E0CE010E94680806
:101680000BE416E4C8010197F1F763E0CE010E9474
:101690006808C8010197F1F763E0CE010E9468086D
:1016A00083E592E00197F1F762E0CE010E946808BD
:1016B00016C06062CE010E94EE088BE496E40197AA
:1016C000F1F76F856062CE010E94EE0883E592E03B
:1016D0000197F1F76F856062CE010E94EE086F8579
:1016E0006062CE010E94EE0884E0888B6CE0CE013F
:1016F0000E94EE0861E0CE010E94EE088BE39FE1BC
:101700000197F1F782E0898B66E0CE01DF91CF91FE
:101710001F910F91FF90EF900C94EE08CF93DF9301
:10172000BC018CEA93E00E94E102EC0168EF71E0F9
:101730008CEA93E00E94E1028C0F9D1FDF91CF9114
:1017400008958F929F92AF92BF92CF92DF92EF92C5
:10175000FF920F931F93CF93DF938C01EB01809146
:101760005404909155040E943006882309F43DC02A
:10177000B80180915404909155040E94DF0540E027
:101780006EEB80915404909155040E949D058E014A
:101790005E0189E0A80EB11C80905404909055041D
:1017A00088E0C82ED12CEE24E394F12CC4010E94D1
:1017B0000C068111FE28EE0CE1E0CE1AD108B1F73B
:1017C000F801F1928F01EA15FB0531F7809154047D
:1017D000909155040E943006813039F468E0CE01C2
:1017E0000E94900591E02885821390E0892FDF9177
:1017F000CF911F910F91FF90EF90DF90CF90BF900E
:10180000AF909F908F9008958DE191E09093710437
:101810008093700480E794E00C94F007CF93DF93FB
:10182000CDB7DEB7EA970FB6F894DEBF0FBECDBFD7
:10183000789484B5826084BD84B5816084BD85B5AB
:10184000826085BD85B5816085BD80916E008160B7
:1018500080936E001092810080918100826080935D
:10186000810080918100816080938100809180005F
:101870008160809380008091B10084608093B1008A
:101880008091B00081608093B00080917A00846084
:1018900080937A0080917A00826080937A008091B0
:1018A0007A00816080937A0080917A0080688093CA
:1018B0007A001092C100E091BC03F091BD0382E078
:1018C0008083E091B803F091B9031082E091BA03EC
:1018D000F091BB038FEC80831092C403E091C003AE
:1018E000F091C10386E08083E091BE03F091BF03D5
:1018F000808180618083E091BE03F091BF0380818D
:1019000088608083E091BE03F091BF03808180688E
:101910008083E091BE03F091BF0380818F7D80833F
:10192000E0915404F0915504138615861486DF0166
:101930001B9633961E92AE17BF07E1F71092530421
:1019400011E0BE016F5F7F4F809154049091550468
:101950000E946606882309F44AC067E0CE0101961A
:101960000E94900598858913ECCF80914F048111D6
:1019700027C080915404909155040E943006BE0106
:101980006F5F7F4F80915404909155040E94DF0552
:1019900040E064EB80915404909155040E949D05B1
:1019A00080915404909155040E940C06082F809158
:1019B0005404909155040E943006002309F42CC46D
:1019C00000915004CE0101960E945E05801718F424
:1019D0008091500404C0CE0101960E945E05809360
:1019E0005004809153048F5F80935304AACF60E02A
:1019F00082E992E00E94F606811104C085E491E03C
:101A00000E948E0B82E992E00E945E05893009F403
:101A10009DC0BE016F5F7F4F82E992E00E94A10BE3
:101A2000882309F493C080919202803109F48EC01A
:101A30008FE18D8380915404909155040E9430066B
:101A400062E972E080915404909155040E94DF0590
:101A500040E06EE480915404909155040E949D05ED
:101A600040E06B8180915404909155040E949D0543
:101A700040E06C8180915404909155040E949D0532
:101A800080919202803141F040E06D818091540458
:101A9000909155040E949D058091540490915504A5
:101AA0000E94300662E972E08091540490915504DE
:101AB0000E94DF0540914F0468E4809154049091A6
:101AC00055040E949D0564E170E080E090E00E9472
:101AD0002D0980914F04882331F06AE070E080E0A6
:101AE00090E00E942D0980915404909155040E9429
:101AF000300680915004893008F489E080935004C6
:101B0000893021F189E08093500400E010E0809159
:101B1000530490E008171907CCF4602FCE01C1964A
:101B20000E94F606F0905004CE01C1960E945E0518
:101B30008F1518F48091500404C0CE01C1960E9404
:101B40005E05809350040F5F1F4FE1CF89E691E05F
:101B50000E948E0B62E083EA94E00E94EB0AB8E6F2
:101B60006B2E77247394AE01405E5F4F5AAF49AF3E
:101B70005E0151E3A50EB11C4091BB045091BC0421
:101B80006A01550FEE08FF08F7FE0EC06DE28CEA01
:101B900093E00E94530144275527BA014C195D096F
:101BA0006E097F092AE003C02AE0B701A6018CEA8A
:101BB00093E00E94F60268EF71E08CEA93E00E94E5
:101BC000E1028091BB049091BC04009749F47092AB
:101BD000BC046092BB04109262031092610305C0C2
:101BE00001979093BC048093BB040E948E0A8111DC
:101BF00022C061E089E00E94F10860E089E00E9473
:101C0000060868EE73E080E090E00E942D0961E034
:101C100089E00E94060860ED77E080E090E00E9495
:101C20002D0960E089E00E94060868EB7BE080E017
:101C300090E00E942D0980E480937C0080917A00DE
:101C4000806480937A0080917A0086FDFCCF1091A9
:101C50007800009179008BE791E00E948E0B612F54
:101C600070E0702B072E000C880B990B0E94EC1271
:101C700020E030E040EA5BE30E944B1320E030E0DC
:101C800040EA50E40E944B1320E030E0A9010E949A
:101C9000E51281114BC08DE891E00E948E0BE0911E
:101CA000B604E23010F4E15001C0E1E0F0E0ED559F
:101CB000FB4F6489606883EA94E00E94EE0862E961
:101CC00071E083EA94E00E94210460E27FEB82E00D
:101CD00090E00E942D091092000182EA91E00E949A
:101CE0008E0B80916103811137C00E948E0A811191
:101CF0000DC068EE73E080E090E00E942D0960EB7B
:101D000071E08CEA93E00E942104EFCF8DEB91E02B
:101D10000E948E0B8FEC91E00E948E0B82E991E085
:101D20000E94670981E08093610316C0E091B604C8
:101D3000E23010F4E15001C0E1E0F0E0ED55FB4F7E
:101D40006489606883EA94E00E94EE0863EE71E0C3
:101D500083EA94E00E94210481E890E00E942B072E
:101D60008E010F5F1F4FF8011192A9ADBAADEA17AE
:101D7000FB07D1F76EE170E0CE0101960E94AA093F
:101D800063EF71E0CE0101960E948115892B41F02D
:101D900062E370E080E090E00E942D0980E02FC0B7
:101DA00086EF91E00E94160A88E690E00E942B07D9
:101DB000F80111928F01EA15FB05D1F76FE270E08F
:101DC000CE0101960E94AA096BEF71E0CE01019647
:101DD0000E948115892B91F06AE370E0CE01019693
:101DE0000E9476158C01892B49F086EF91E00E94C4
:101DF000160AC80101960E948A1201C08FEFE82ED0
:101E0000880FFF08F0926003E0925F031E141F0426
:101E10000CF0DCC08DB69EB64DB75EB7405F510981
:101E20000FB6F8945EBF0FBE4DBF0DB71EB70F5F64
:101E30001F4F86EA90E00E942B0786EF91E00E94F8
:101E4000160A68EE73E080E090E00E942D098DE9AB
:101E500090E00E942B074AE0BE016F5F7F4FC701F1
:101E60000E94A812CE0101960E943C078AE990E0E8
:101E70000E942B07F801C80180519F4F1192E8176B
:101E8000F907E1F760EF70E0C8010E94AA0962E07B
:101E900072E0C8010E9481157C01009709F462C0BC
:101EA0006CE270E00E9476158C010E5F1F4F62E2BB
:101EB00070E0C8010E9476150097A1F0A801E2EB3E
:101EC000F2E08A019F01225B32404817590730F443
:101ED0004F5F5F4FD8012C912193F3CFF901EE545E
:101EE000FD4F10826CE270E0C8010E9476156CE232
:101EF00070E001960E9476158C010E5F1F4F62E222
:101F000070E0C8010E947615009789F0D8012AE98F
:101F100032E0F901EA59F240A817B90728F44D91C7
:101F2000F90141939F01F5CFE656FD4F108268EF0E
:101F300071E0C7010E9481150097A1F0FC01329663
:101F4000AFEBB2E020E030E081918D3039F02F39F5
:101F5000310521F02F5F3F4F8D93F6CFF901E1540A
:101F6000FD4F10820FB6F8949EBE0FBE8DBE00913D
:101F70005F031091600384EB90E00E942B074AE01E
:101F8000BE016F5F7F4FC8010E94A812CE0101966B
:101F90000E943C0782EB90E00E942B0786EF91E0C5
:101FA0000E94160A69E072E08CEA93E00E94210424
:101FB00082EB92E00E948E0B67E172E08CEA93E084
:101FC0000E9421048FEB92E00E948E0B80915404BA
:101FD000909155040E94300640E06CEC80915404CE
:101FE000909155040E949D0540914F0464E48091B6
:101FF0005404909155040E949D05809151048823BA
:10200000D9F1E0915004E950E33040F4F0E0EE0FF4
:10201000FF1FEF5FFE4F0081118102C00EEE12E044
:1020200080915204882311F180914F0481111EC0C8
:102030000E948B026B017C011801110F44085508A6
:1020400080915404909155040E940C068130A1F0B7
:102050000E948B02DC01CB0182199309A409B50906
:102060008C159D05AE05BF0558F306C0B801110FCC
:10207000880B990B0E942D09BE016F5F7F4F82E98B
:1020800092E00E94A10B882361F16981F8E06F9FC3
:10209000B00111248A81282F30E0322F2227330FFC
:1020A000330F330F262B372B809192028031E1F4CE
:1020B000688570E08F81AB01481B5109CA01969574
:1020C000982F8827979587950E942115605171094F
:1020D000207F53E0220F331F5A95E1F7620F731FE1
:1020E00004C060E874EE01C0B901613854EE7507B0
:1020F0007CF0072E000C880B990B0E94EC1220E05C
:1021000030E040E05CE30E944B136B017C0106C0B1
:10211000C12CD12C8EEFE82E82ECF82E8AE292E0D0
:102120000E948E0B22E0B701A6018CEA93E00E9488
:102130003F0368EF71E08CEA93E00E94E10280E4E3
:1021400092E00E948E0B88E592E00E948E0B22E0C6
:10215000B701A6018CEA93E00E943F03E1E0809181
:10216000B6048111E0E0E195F0E0ED55FB4F6489A4
:10217000606883EA94E00E94EE0868E572E083EA12
:1021800094E00E94210422E0B701A60183EA94E0D2
:102190000E943F036FED83EA94E00E9453016FE5D4
:1021A00072E083EA94E00E94210420E030E040E500
:1021B00051E4C701B6010E94E51287FF24C0809157
:1021C0006203811120C00E948E0A81110DC068EE49
:1021D00073E080E090E00E942D0960EB71E08CEAF2
:1021E00093E00E942104EFCF8DEB91E00E948E0BD3
:1021F0008FEC91E00E948E0B82E692E00E946709CC
:1022000081E08093620368E873E180E090E00E94DF
:102210002D090E945A02B0CC10934F04D1CBCF921B
:10222000DF92EF92FF921092AF031092AE0338EE5E
:10223000C32E33E0D32EE12CF12CC092B003D09208
:10224000B103E092B203F092B3038BE091E090937C
:10225000AD038093AC0385EC90E09093B903809339
:10226000B80384EC90E09093BB038093BA0380ECB6
:1022700090E09093BD038093BC0381EC90E0909339
:10228000BF038093BE0382EC90E09093C1038093E0
:10229000C00386EC90E09093C3038093C203109236
:1022A000C5031092C6031092C7031092C80388E6B4
:1022B00091E09093BC048093BB041092A60410920A
:1022C000A5048FE291E09093A4048093A3048CE092
:1022D0008093A7048FEF8093A8048BE08093A904D8
:1022E00085E08093AA0484E08093AB0483E080932C
:1022F000AC0482E08093AD041092AE041092AF045F
:102300001092B0041092B1041092B20461E083EA1A
:1023100094E00E94EB0A1092730410927204C0922F
:102320007404D0927504E0927604F09277048DE103
:1023300091E090937104809370041092870410923E
:102340008604109289041092880410928B041092D3
:102350008A0410928D0410928C0460918E046E7F1A
:102360006D7F60938E046695617081E0682788E0D8
:102370000E94060861E088E00E94F108E1E4F2E0D2
:10238000E491E0938004EDE2F2E0E491F0E0EE0FFE
:10239000FF1FEF5EFD4F859194919093820480938F
:1023A000810460E087E00E94F10880918E0481FD45
:1023B00004C061E087E00E94060880E794E027E01F
:1023C00020937C04E0E4F2E0E491E0937D04ECE20D
:1023D000F2E0E491F0E0EE0FFF1FE55EFD4F259186
:1023E000349130937F0420937E049093BE048093B5
:1023F000BD0490934E0480934D048DE991E0909339
:102400008D0480938C042DEB30E03093870420936F
:1024100086042BE931E030938904209388042CE270
:1024200031E030938B0420938A042091680024606B
:10243000209368002DE630E03093840420938304D9
:1024400020E8209385040197F1F780914B04909147
:102450004C0424E080379207E1F0009711F00E94CD
:10246000F00780918E048E7F80938E0410924A0430
:102470001092490480E794E090934C0480934B04BD
:10248000E0918304F0918404908180918504892BEC
:10249000808360E08DE00E94F108E6E4F2E0E491E0
:1024A000E0936204E2E3F2E0E491F0E0EE0FFF1F5C
:1024B000E55EFD4F8591949190936404809363044D
:1024C00010926D0410926F0410926E04EDE6F4E029
:1024D000129284E0E536F807D9F78BE794E0909301
:1024E00061048093600482E694E0909355048093A5
:1024F00054041092530410924F0489E080935004C6
:1025000081E08093510480935204FF90EF90DF901C
:10251000CF900895FC0188279927E89421912032D3
:10252000E9F3293010F02E30C8F32B3241F02D3270
:1025300039F4689404C00E94B312820F911D219156
:1025400020532A30C0F31EF4909581959F4F089533
:10255000BB274A3031F4992322F4BDE2909581954E
:102560009F4F0C94BC127AE0979F902D879F802DEF
:10257000910D11240895BB27FB015527AA27880F29
:10258000991FAA1FA41710F0A41B83955051B9F7E7
:10259000A05DAA3308F0A95DA193009779F7B11166
:1025A000B1931192CB010C94D512DC01FC01672F81
:1025B00071917723E1F7329704C07C916D9370831A
:1025C0006291AE17BF07C8F308950E94271308F45D
:1025D00081E00895E89409C097FB3EF490958095BA
:1025E000709561957F4F8F4F9F4F9923A9F0F92FD9
:1025F00096E9BB279395F695879577956795B79557
:10260000F111F8CFFAF4BB0F11F460FF1BC06F5F3C
:102610007F4F8F4F9F4F16C0882311F096E911C04E
:10262000772321F09EE8872F762F05C0662371F06F
:1026300096E8862F70E060E02AF09A95660F771F83
:10264000881FDAF7880F9695879597F90895990F5F
:102650000008550FAA0BE0E8FEEF16161706E8076C
:10266000F907C0F012161306E407F50798F0621B8D
:10267000730B840B950B39F40A2661F0232B242B62
:10268000252B21F408950A2609F4A140A6958FEF81
:10269000811D811D08950E945E130C94CF130E942A
:1026A000C11338F00E94C81320F0952311F00C9448
:1026B000B8130C94BE1311240C9403140E94E0135D
:1026C00070F3959FC1F3950F50E0551F629FF00185
:1026D000729FBB27F00DB11D639FAA27F00DB11D9E
:1026E000AA1F649F6627B00DA11D661F829F222727
:1026F000B00DA11D621F739FB00DA11D621F839FAE
:10270000A00D611D221F749F3327A00D611D231F83
:10271000849F600D211D822F762F6A2F11249F57D1
:1027200050409AF0F1F088234AF0EE0FFF1FBB1FD4
:10273000661F771F881F91505040A9F79E3F510593
:1027400080F00C94B8130C9403145F3FE4F3983EAC
:10275000D4F3869577956795B795F795E7959F5F3D
:10276000C1F7FE2B880F911D9695879597F90895CF
:1027700097F99F6780E870E060E008959FEF80EC34
:10278000089500240A9416161706180609060895D7
:1027900000240A9412161306140605060895092E3D
:1027A0000394000C11F4882352F0BB0F40F4BF2BAC
:1027B00011F460FF04C06F5F7F4F8F4F9F4F0895EC
:1027C00057FD9058440F551F59F05F3F71F04795E2
:1027D000880F97FB991F61F09F3F79F087950895C7
:1027E000121613061406551FF2CF4695F1DF08C0E6
:1027F000161617061806991FF1CF86957105610503
:1028000008940895E894BB2766277727CB0197F9AA
:1028100008955058BB27AA270E9421140C94CF1367
:102820000E94C11338F00E94C81320F039F49F3F72
:1028300019F426F40C94BE130EF4E095E7FB0C9407
:10284000B813E92F0E94E01358F3BA176207730711
:102850008407950720F079F4A6F50C9402140EF481
:10286000E0950B2EBA2FA02D0B01B90190010C01A0
:10287000CA01A0011124FF27591B99F0593F50F4B8
:10288000503E68F11A16F040A22F232F342F442710
:10289000585FF3CF469537952795A795F040539508
:1028A000C9F77EF41F16BA0B620B730B840BBAF0D8
:1028B0009150A1F0FF0FBB1F661F771F881FC2F743
:1028C0000EC0BA0F621F731F841F48F48795779557
:1028D0006795B795F7959E3F08F0B0CF9395880F11
:1028E00008F09927EE0F9795879508950E948A140E
:1028F0000C94CF130E94C81358F00E94C11340F0EB
:1029000029F45F3F29F00C94B81351110C9403146F
:102910000C94BE130E94E01368F39923B1F355237E
:1029200091F3951B550BBB27AA27621773078407E2
:1029300038F09F5F5F4F220F331F441FAA1FA9F378
:1029400035D00E2E3AF0E0E832D091505040E69566
:10295000001CCAF72BD0FE2F29D0660F771F881FC7
:10296000BB1F261737074807AB07B0E809F0BB0BBA
:10297000802DBF01FF2793585F4F3AF09E3F5105CE
:1029800078F00C94B8130C9403145F3FE4F3983E72
:10299000D4F3869577956795B795F7959F5FC9F7B7
:1029A000880F911D9695879597F90895E1E0660F38
:1029B000771F881FBB1F621773078407BA0720F0B1
:1029C000621B730B840BBA0BEE1F88F7E09508951A
:1029D0000E94E81388F09F5798F0B92F9927B751B4
:1029E000B0F0E1F0660F771F881F991F1AF0BA95B3
:1029F000C9F714C0B13091F00E940214B1E00895FB
:102A00000C940214672F782F8827B85F39F0B93FEC
:102A1000CCF3869577956795B395D9F73EF4909565
:102A20008095709561957F4F8F4F9F4F08950E94BD
:102A3000271308F48FEF08950E942713880B990B32
:102A4000089597FB072E16F4009407D077FD09D060
:102A50000E94571507FC05D03EF4909581959F4F35
:102A60000895709561957F4F0895A1E21A2EAA1BD3
:102A7000BB1BFD010DC0AA1FBB1FEE1FFF1FA2172E
:102A8000B307E407F50720F0A21BB30BE40BF50B2B
:102A9000661F771F881F991F1A9469F760957095B4
:102AA000809590959B01AC01BD01CF010895AA1BB3
:102AB000BB1B51E107C0AA1FBB1FA617B70710F029
:102AC000A61BB70B881F991F5A95A9F7809590955B
:102AD000BC01CD010895EE0FFF1F0590F491E02D8C
:102AE000099481E090E0F8940C949B15FC0181918D
:102AF000861721F08823D9F7992708953197CF01B8
:102B00000895FB0151915523A9F0BF01DC014D91BE
:102B100045174111E1F759F4CD010190002049F02A
:102B20004D9140154111C9F3FB014111EFCF81E0F7
:102B300090E00197089511E0C8E2D1E004C0FE01E1
:102B40000E946B152196C932D107C9F7F894FFCFBF
:102B5000015E00BC00770100000000F1015A01890C
:102B6000013802BA019801AC0100000000D1045AFA
:102B7000018601D00425053D05B80400000000E8E9
:102B8000085A018601850168016E616E00696E66F2
:102B9000006F766600556E61626C6520746F20660A
:102BA000696E64206164647265737320666F72205D
:102BB00044657669636520300053657474696E6797
:102BC000207570206C63642E2E2E00436865636B45
:102BD000696E6720766F6C746167652E006475702E
:102BE00061004272616B207A6173696C616E696128
:102BF0002E00566F6C7461676520697320302E005B
:102C0000696E6974206572726F720D0A0067707266
:102C10007320696E697420737563636573730073E1
:102C2000656E64696E67206D657373616765202EDC
:102C30002E2E005A6173696C616E6965204F4B2EB0
:102C40002020004F4B004F4B0D0A002B434D474CAB
:102C50003A002B434D47523A0046726F6D206E7515
:102C60006D6265723A20005265636965766564201D
:102C70004D6573736167653A2000436865636B69EE
:102C80006E672074656D70657261747572652E0073
:102C90005072696E74696E672074656D70657261DB
:102CA000747572652E2E2E0054656D703A200020CA
:102CB000430054656D7065726174757261207A614C
:102CC000206E69736B612E003630373537303336FE
:102CD00036003E002B4350494E3A2052454144595C
:022CE0000000F2
:00000001FF
