:100000000C9429010C9451010C9451010C94AC02F4
:100010000C94AC020C94AC020C9451010C94510160
:100020000C9451010C9451010C9451010C94510108
:100030000C9451010C9451010C9451010C945101F8
:100040000C940A040C9451010C94BA050C94940578
:100050000C9451010C9451010C9451010C945101D8
:100060000C9451010C94510141542B434D474C3D8C
:100070002252454320554E52454144222C310D0A0F
:100080000041542B434D474C3D2252454320554E91
:1000900052454144222C310D0A000D0A0041542BD7
:1000A000434D47523D0041542B434D47463D310D92
:1000B0000A000D0041542B434D47443D0000000011
:1000C00000240027002A00000000080002010000B0
:1000D000030407000000000000000041542B4350BF
:1000E000494E3F0D0A0041542B4346554E3D310DBC
:1000F0000A0041540D0A0000000000250028002BD2
:100100000000000000230026002900040404040469
:1001100004040402020202020203030303030301B4
:10012000020408102040800102040810200102048B
:10013000081020005EBCE2613FDD83C29C7E20A3EC
:10014000FD1F419DC3217FFCA2401E5F01E3BD3E18
:100150006082DC237D9FC1421CFEA0E1BF5D038065
:10016000DE3C62BEE0025CDF81633D7C22C09E1DFE
:1001700043A1FF4618FAA427799BC584DA3866E5BF
:10018000BB5907DB856739BAE406581947A5FB78E0
:1001900026C49A653BD987045AB8E6A7F91B45C619
:1001A000987A24F8A6441A99C7257B3A6486D85BC6
:1001B00005E7B98CD2306EEDB3510F4E10F2AC2F73
:1001C0007193CD114FADF3702ECC92D38D6F31B2B0
:1001D000EC0E50AFF1134DCE90722C6D33D18F0CCD
:1001E00052B0EE326C8ED0530DEFB1F0AE4C129196
:1001F000CF2D73CA947628ABF517490856B4EA692F
:1002000037D58B5709EBB536688AD495CB2977F467
:10021000AA4816E9B7550B88D6346A2B7597C94A90
:1002200014F6A8742AC896154BA9F7B6E80A54D74D
:10023000896B35220D0A0041542B434D47533D2213
:100240000041542B434D47463D310D0A0000E91053
:10025000020C11241FBECFEFD8E0DEBFCDBF24E0DB
:10026000A2E8B2E001C01D92AF3AB207E1F712E096
:10027000A0E0B1E0E4E0FBE202C005900D92A238FC
:10028000B107D9F711E0C8E2D1E004C02197FE011F
:100290000E944515C732D107C9F70E940C0C0C9477
:1002A00075150C9400002091FB033091FC03281776
:1002B0003907B9F49091F9038091FA03981789F0FE
:1002C000E091F903F0E0E159FB4F80812091F903BF
:1002D00030E02F5F3F4F2F7333272093F90390E0D7
:1002E00008958FEF9FEF08953FB7F89480915803DA
:1002F00090915903A0915A03B0915B0326B5A89B36
:1003000005C02F3F19F00196A11DB11D3FBFBA2FA7
:10031000A92F982F8827820F911DA11DB11DBC0107
:10032000CD0142E0660F771F881F991F4A95D1F7CC
:100330000895DC01ED91FC910190F081E02D09948C
:10034000CF92DF92EF92FF920F931F93CF93DF93A1
:100350006C017A018B01C0E0D0E0CE15DF0589F099
:10036000D8016D918D01D601ED91FC910190F08144
:10037000E02DC6010995892B11F47E0102C021965A
:10038000ECCFC701DF91CF911F910F91FF90EF90BC
:10039000DF90CF900895089580E090E00895FC01EB
:1003A000538D448D252F30E0842F90E0821B930BDA
:1003B000541710F0CF96089501970895FC01918D80
:1003C000828D981761F0828DDF01A80FB11D5D96B7
:1003D0008C91928D9F5F9F73928F90E008958FEF25
:1003E0009FEF0895FC01918D828D981731F0828DD9
:1003F000E80FF11D858D90E008958FEF9FEF089530
:10040000FC01918D228D892F90E0805C9F4F821B93
:1004100091098F73992708958CE593E00E9400025B
:1004200021E0892B09F420E0822F0895FC01848DBE
:10043000DF01A80FB11DA35ABF4F2C91848D90E00E
:1004400001968F739927848FA689B7892C93A089E9
:10045000B1898C9180648C93938D848D981306C0A0
:100460000288F389E02D80818F7D80830895EF924B
:10047000FF920F931F93CF93DF93EC0181E0888F5E
:100480009B8D8C8D981305C0E889F989808185FD45
:1004900024C0F62E0B8D10E00F5F1F4F0F73112736
:1004A000E02E8C8DE8120CC00FB607FCFACFE8895D
:1004B000F989808185FFF5CFCE010E941602F1CF28
:1004C0008B8DFE01E80FF11DE35AFF4FF0820B8F79
:1004D000EA89FB898081806207C0EE89FF89608399
:1004E000E889F98980818064808381E090E0DF91F0
:1004F000CF911F910F91FF90EF900895CF93DF93CD
:10050000EC01888D8823C9F0EA89FB89808185FD0B
:1005100005C0A889B9898C9186FD0FC00FB607FC6C
:10052000F5CF808185FFF2CFA889B9898C9185FFAD
:10053000EDCFCE010E941602E7CFDF91CF91089553
:1005400080E090E0892B29F00E940C0281110C942C
:10055000000008950E944B151F920F920FB60F9244
:1005600011242F933F934F935F936F937F938F93B8
:100570009F93AF93BF93EF93FF93E091FB03F091B1
:10058000FC03309709F451C0968DA685B785858503
:1005900091FF04C09C91892329F447C09C91892331
:1005A00009F043C0A389B4899C91858980958923EA
:1005B0008C93868997890197F1F7608D718DA68557
:1005C000B785558538E020E0CB010197F1F7822F00
:1005D00090E095958795282F4C91452309F0206848
:1005E000315091F7868D81FD20958091FA0390E03E
:1005F00001968F7399273091F903381749F0A0912C
:10060000FA03B0E0A159BB4F2C938093FA0303C0C7
:10061000868D8160868F828D938D0197F1F7A389F6
:10062000B4899C918589892B8C93FF91EF91BF911F
:10063000AF919F918F917F916F915F914F913F917A
:100640002F910F900FBE0F901F901895E091FB0314
:10065000F091FC03E817F90769F4A389B4899C9128
:100660008589809589238C931092FC031092FB035B
:1006700081E0089580E0089590E0FC01E953FF4F88
:100680003491FC01E15EFE4F2491FC01E55FFE4FD9
:10069000E491EE2309F43BC0332339F1333091F078
:1006A00038F43130A9F0323001F584B58F7D12C0B5
:1006B000373091F03830A1F03430B9F480918000B7
:1006C0008F7D03C0809180008F77809380000DC064
:1006D00084B58F7784BD09C08091B0008F7703C047
:1006E0008091B0008F7D8093B000F0E0EE0FFF1F8F
:1006F000E950FF4FA591B4918FB7F894EC91611137
:1007000003C020952E2301C02E2B2C938FBF08955C
:10071000CF93DF9390E0FC01E15EFE4F2491FC015A
:10072000E55FFE4F8491882361F190E0880F991F67
:10073000FC01E354FF4FC591D491FC01E950FF4FF8
:10074000A591B491611109C09FB7F8948881209553
:1007500082238883EC912E230BC0623061F49FB713
:10076000F8943881822F809583238883EC912E2BF7
:100770002C939FBF06C08FB7F894E8812E2B288357
:100780008FBFDF91CF9108958F929F92AF92BF92CA
:10079000CF92DF92EF92FF926B017C010E94740175
:1007A0004B015C01C114D104E104F104F1F00E9499
:1007B0007401DC01CB0188199909AA09BB09883E9B
:1007C0009340A105B10570F321E0C21AD108E108F8
:1007D000F10888EE880E83E0981EA11CB11CC1149C
:1007E000D104E104F10419F7DDCFFF90EF90DF9021
:1007F000CF90BF90AF909F908F9008952FB7F894AF
:100800006091540370915503809156039091570362
:100810002FBF08951F920F920FB60F9211242F939E
:100820003F938F939F93AF93BF9380915403909185
:100830005503A0915603B09157033091530323E021
:10084000230F2D3720F40196A11DB11D05C026E808
:10085000230F0296A11DB11D2093530380935403CF
:1008600090935503A0935603B09357038091580378
:1008700090915903A0915A03B0915B030196A11D79
:10088000B11D8093580390935903A0935A03B093DA
:100890005B03BF91AF919F918F913F912F910F90EB
:1008A0000FBE0F901F9018956115710579F0FB012F
:1008B00001900020E9F73197AF01461B570BDC018F
:1008C000ED91FC910280F381E02D099480E090E0AD
:1008D00008954F925F926F927F92EF92FF920F93E3
:1008E0001F93CF93DF93CDB7DEB7A1970FB6F894E0
:1008F000DEBF0FBECDBF7C01FA01CB0119A22230B1
:1009000008F42AE08E010F5D1F4F422E512C612CFE
:10091000712CBF01A30192010E940F15F901CA01B8
:10092000015011096A3014F4605D01C0695CD8019E
:100930006C93232B242B252B61F7B801C7010E9450
:100940005404A1960FB6F894DEBF0FBECDBFDF9161
:10095000CF911F910F91FF90EF907F906F905F90DC
:100960004F9008954F925F926F927F928F929F92D5
:10097000AF92BF92CF92DF92EF92FF92CF93DF932D
:10098000EC016A017B01B22E9A01AB01C701B601ED
:100990000E94F614882319F069E371E027C026014C
:1009A0003701E89477F82FEF3FEF4FE75FE7C30198
:1009B000B2010E94F61481110DC02FEF3FEF4FE7F7
:1009C0005FE7C301B2010E94BF1218161CF46DE369
:1009D00071E00CC02FEF3FEF4FE75FE4C701B601B6
:1009E0000E94F11418169CF461E471E0CE01DF91CD
:1009F000CF91FF90EF90DF90CF90BF90AF909F90FE
:100A00008F907F906F905F904F900C9454042FEFD5
:100A10003FEF4FE75FECC701B6010E94BF1287FDB1
:100A2000E3CF20E030E0A901C701B6010E94BF1268
:100A300087FF0AC06DE2CE010E9499014C01F7FACE
:100A4000F094F7F8F09402C0812C912CA12C60E076
:100A500070E080E09FE3AB1441F020E030E040E242
:100A600051E40E945014A394F6CF9B01AC01C7013E
:100A7000B6010E94E4132B013C010E94C2146B01D9
:100A80007C010E94C4129B01AC01C301B2010E940F
:100A9000E3132B013C012AE0B701A601CE010E941D
:100AA00069047C01E80CF91CBB2031F06EE2CE0138
:100AB0000E949901E80EF91EDB2CDD2029F120E0CF
:100AC00030E040E251E4C301B2010E9425132B0142
:100AD0003C010E94C2144B01A12CB12C2AE0B501AB
:100AE000A401CE010E946904E80EF91EC501B401FB
:100AF0000E94C4129B01AC01C301B2010E94E31326
:100B00002B013C01DA94D9CFC701DF91CF91FF903F
:100B1000EF90DF90CF90BF90AF909F908F907F909D
:100B20006F905F904F9008951F920F920FB60F92A3
:100B300011242F933F934F935F936F937F938F93E2
:100B40009F93AF93BF93EF93FF938CE593E00E9445
:100B50001602FF91EF91BF91AF919F918F917F917D
:100B60006F915F914F913F912F910F900FBE0F901A
:100B70001F9018951F920F920FB60F9211242F936A
:100B80008F939F93EF93FF93E0916C03F0916D032C
:100B90008081E0917203F091730382FD12C0908115
:100BA000809175038F5F8F7320917603821751F0C8
:100BB000E0917503F0E0E45AFC4F958F8093750344
:100BC00001C08081FF91EF919F918F912F910F90A4
:100BD0000FBE0F901F9018954F925F926F927F9269
:100BE0009F92AF92BF92CF92DF92EF92FF920F93BC
:100BF0001F93CF93DF935C018B010E94FE032B01B7
:100C00003C01C12CD12C7601C0E0D0E00E94A30BA6
:100C1000892BD9F08091FD039091FE03DC01ED91C9
:100C2000FC910284F385E02D0995982E0E94FE0325
:100C30006B017C019E012F5F3F4FCA0DDB1D988227
:100C4000201731072CF5E901E1CFC017D10704F5D2
:100C50000E94FE03DC01CB0184199509A609B7099E
:100C600089389341A105B10598F40E94FE03DC0187
:100C7000CB018C199D09AE09BF09893B9B40A10599
:100C8000B10520F2C114D104E104F10409F4BECF8E
:100C9000DF91CF911F910F91FF90EF90DF90CF9058
:100CA000BF90AF909F907F906F905F904F9008950E
:100CB0004F925F926F927F929F92AF92BF92CF922C
:100CC000DF92EF92FF920F931F93CF93DF935C011C
:100CD000EC0109900020E9F72197C81BD90B0E946D
:100CE000FE032B013C01C12CD12C760100E010E069
:100CF0000E94A30B892BF1F08091FD039091FE03DC
:100D0000DC01ED91FC910284F385E02D0995982E8C
:100D10000E94FE036B017C01F501E00FF11F808151
:100D2000891103C00F5F1F4F02C000E010E00C17D5
:100D30001D0719F10E94FE03DC01CB0184199509FE
:100D4000A609B70989389341A105B10510F080E0E3
:100D500017C00E94FE03DC01CB018C199D09AE096E
:100D6000BF09893B9B40A105B10510F2C114D10414
:100D7000E104F10409F4BCCFEACF0E94AE0B81E09C
:100D8000DF91CF911F910F91FF90EF90DF90CF9067
:100D9000BF90AF909F907F906F905F904F9008951D
:100DA000DF92EF92FF920F931F93CF93DF93CDB714
:100DB000DEB7A0970FB6F894DEBF0FBECDBF82EFAF
:100DC00090E00E94740B81EE91E00E945806882307
:100DD000A1F186EE90E00E94740B81EE91E00E94FA
:100DE0005806182F882349F1FE013196CE018196CD
:100DF0000E2FDF2E1192E817F907E1F783E0E82EB6
:100E0000F12C8BED90E00E94740B60E270E0802F7B
:100E10009D2D0E94EC0567E672E0802F9D2D0E94BB
:100E20005B15892B59F46CE271E080E090E00E9440
:100E3000C40381E0E81AF10821F710E0812FA096A1
:100E40000FB6F894DEBF0FBECDBFDF91CF911F91DB
:100E50000F91FF90EF90DF900895EF92FF920F9324
:100E60001F93CF93DF93EC01623018F08F85886079
:100E70008F876B8B1C8A80E48D8B80E18E8B80E565
:100E80008F8B61E08C810E9488038D818F3F19F0E8
:100E900061E00E94880361E08E810E9488037E01E8
:100EA00087E0E80EF11C00E010E08F8584FD03C0B0
:100EB00084E090E002C088E090E0081719074CF445
:100EC00061E0F70181917F010E9488030F5F1F4F4E
:100ED000ECCF8BE39DE00197F1F760E08C810E94FD
:100EE0003C0360E08E810E943C038D818F3F19F0AE
:100EF00060E00E943C036F8564FD1DC063E0CE018D
:100F00000E94EB0A0BE416E4C8010197F1F763E0D5
:100F1000CE010E94EB0AC8010197F1F763E0CE0110
:100F20000E94EB0A83E592E00197F1F762E0CE01BF
:100F30000E94EB0A16C06062CE010E94710B8BE426
:100F400096E40197F1F76F856062CE010E94710B04
:100F500083E592E00197F1F76F856062CE010E9410
:100F6000710B6F856062CE010E94710B84E0888BEB
:100F70006CE0CE010E94710B61E0CE010E94710B0A
:100F80008BE39FE10197F1F782E0898B66E0CE0168
:100F9000DF91CF911F910F91FF90EF900C94710B07
:100FA000CF93DF93BC018CE593E00E945404EC01E5
:100FB00063EE71E08CE593E00E9454048C0F9D1F5A
:100FC000DF91CF9108958F929F92AF92BF92CF926F
:100FD000DF92EF92FF920F931F93CF93DF938C01D9
:100FE000EB0180910404909105040E94F00988238C
:100FF00009F43DC0B80180910404909105040E9459
:101000009F0940E06EEB80910404909105040E94DA
:101010005D098E015E0189E0A80EB11C8090040478
:101020009090050488E0C82ED12CEE24E394F12C96
:10103000C4010E94CC098111FE28EE0CE1E0CE1A19
:10104000D108B1F7F801F1928F01EA15FB0531F7EC
:1010500080910404909105040E94F009813039F4D4
:1010600068E0CE010E94500991E02885821390E04B
:10107000892FDF91CF911F910F91FF90EF90DF901B
:10108000CF90BF90AF909F908F9008950895FC01EE
:1010900090810180F281E02D892F809560FF12C040
:1010A000F8942281822382838181892B8183A3E228
:1010B000B0E01197F1F78281982B9283789487EDB5
:1010C00090E011C0F8942281822382838181892B50
:1010D0008183AFEFB0E01197F1F78281982B928373
:1010E00078948FE090E00197F1F70895A091FD03C7
:1010F000B091FE03ED91FC9111970190F081E02DEC
:10110000682FCD0109942091FB033091FC0328172F
:10111000390771F49091F9038091FA03981741F01F
:10112000E091F903F0E0E159FB4F808190E00895F0
:101130008FEF9FEF089508951F93CF93DF93DC0106
:101140005C962D913C915D972115310539F481E034
:1011500090E013969C938E9312973DC05196ED911B
:10116000FC91529750969C915097892F80951FB76C
:101170005E964C915E9741FB772770F941FD609533
:10118000F8944081772311F0492B01C04823408314
:10119000E9012197F1F748E0508160FF02C0592B27
:1011A00001C058235083E9012197F1F7669541501A
:1011B00099F7772321F090818923808303C0808170
:1011C000982B90831FBF5C968D919C915D970197A2
:1011D000F1F721E030E0C901DF91CF911F9108952F
:1011E0002091FB033091FC032817390771F480919B
:1011F000FA032091F90390E0805C9F4F821B9109D4
:1012000060E470E00E94FB14089580E090E008958F
:10121000CF93DF93EC0160E08E810E943C0361E09C
:101220008E810E943C0360E08E810E943C038BE82B
:1012300091E00197F1F7DF91CF910895CF93DF937C
:10124000CDB7DEB729970FB6F894DEBF0FBECDBF7E
:10125000FC0120812031D1F0BE016F5F7F4F0E94E1
:10126000E307882389F08D818F3361F020F48F317B
:1012700059F489E00CC08F3519F08F3739F004C06C
:101280008BE005C08AE003C080E001C08CE02996B5
:101290000FB6F894DEBF0FBECDBFDF91CF9108959A
:1012A000DC01E0E0615038F08D91E827F0E0ED5C82
:1012B000FE4FE491F7CF8E2F0895CF92DF92EF92F9
:1012C000FF920F931F93CF93DF931F92CDB7DEB79B
:1012D0006C01E62E08E010E0FF24F39461E08F2D0E
:1012E0008E2109F460E0C60149830E944708FF0C83
:1012F0000150110949810115110581F7411115C0EE
:10130000F894D6011196ED91FC91129791818C91F0
:101310008095892381831196ED91FC91129792819A
:101320008C9180958923828378940F90DF91CF915F
:101330001F910F91FF90EF90DF90CF900895CF9283
:10134000DF92EF92FF920F931F93CF93DF931F9241
:10135000CDB7DEB78C01F62E40E065E579830E94BB
:101360005D09CF2C7981D72E760188E0E80EF11C3B
:10137000F60161916F0140E0C8010E945D09CE1441
:10138000DF04B1F70F90DF91CF911F910F91FF9084
:10139000EF90DF90CF900895FC0190810180F28161
:1013A000E02DF8948181892B81832281892F80957A
:1013B00028232283A7E0B0E01197F1F7218182234F
:1013C0008183A3E2B0E01197F1F780817894EFEC8C
:1013D000F0E03197F1F7982381E009F480E0089577
:1013E000FC0190810180F281E02DF8948181292F08
:1013F00020958223818378948DE743E050E08150EB
:1014000021F1DA011197F1F730813923C1F3F89412
:101410008281822382838181892B81837894ABE7C7
:10142000B7E01197F1F7F894818128232183A3E194
:10143000B1E01197F1F78081982381E009F080E015
:101440007894E3E6F6E03197F1F70895AF92BF9212
:10145000CF92DF92EF92FF920F931F93CF93DF9380
:101460001F92CDB7DEB75C01D62EE72EFC01858535
:10147000811105C0C5010E94F009811106C0F50166
:1014800013861586148680E065C040E060EFC501D4
:101490000E945D0901E0F12CC12C11E0C5010E9400
:1014A000CC09682FC50169830E94CC09698161302C
:1014B00019F48130B9F433C04F2D50E068131BC0CC
:1014C000F5018385181730F4E40FF51F838180231D
:1014D00049F402C0181731F060E0193058F4F501F2
:1014E000148708C0F501EF0DF11D8381802B8383E4
:1014F00061E009C0C12EF501E40FF51F9381802F33
:10150000809589238383C5010E9447081F5F000FD0
:1015100011F4F39401E0F7E0FF1508F0BFCF1134A8
:1015200008F4ADCFF501C386C11002C081E0858704
:10153000F5018381882309F4A2CFD5011396ED2DFF
:10154000FE2D9501255F3F4F8D918193A217B30723
:10155000D9F781E00F90DF91CF911F910F91FF900C
:10156000EF90DF90CF90BF90AF9008950F931F93AF
:10157000CF93DF938C01D62FE0910404F091050402
:10158000138615861486DF011B9633961E92AE17BE
:10159000BF07E1F7C0E0B801809104049091050411
:1015A0000E94260A811102C080E010C0CD130AC03B
:1015B00067E0C8010E945009F8019781891302C0B1
:1015C00081E004C0CF5FDC1778F3E5CFDF91CF91E6
:1015D0001F910F910895CF92DF92EF92FF920F9398
:1015E0001F93CF93DF937C016C0187E0C80ED11C61
:1015F000C0E0D0E0062F10E0B8010C2E02C07595B7
:1016000067950A94E2F76170F60181916F010E947B
:101610003C032196C430D10579F7C701DF91CF9102
:101620001F910F91FF90EF90DF90CF900C940809DD
:10163000CF92DF92EF92FF920F931F93CF93DF939E
:10164000EC01F62E642F8C810E943C038D818F3F2C
:1016500019F060E00E943C038F850F2D10E084FF9D
:1016600025C06E0187E0C80ED11CE12CF12CB80119
:101670000E2C02C0759567950A94E2F76170F60129
:1016800081916F010E943C03FFEFEF1AFF0A88E08F
:10169000E816F10461F7CE01DF91CF911F910F9110
:1016A000FF90EF90DF90CF900C940809B80184E090
:1016B000759567958A95E1F7CE010E94EB0A6F2D2B
:1016C000CE01DF91CF911F910F91FF90EF90DF90AE
:1016D000CF900C94EB0A41E00E94180B81E090E05F
:1016E000089540E00C94180BCF93DF93FC012491F4
:1016F000EC012196222331F0FC0184910E947608AE
:10170000CE01F4CFDF91CF9108950F931F93CF9324
:10171000DF93EC018C01FE0101900020E9F7319785
:10172000EC1BFD0BC8018C1B9D0B8E179F0730F423
:10173000F80181918F010E947608EDCFDF91CF9162
:101740001F910F9108958091FD039091FE03DC019C
:10175000ED91FC910084F185E02D09940E94A30B8A
:10176000892B61F08091FD039091FE03DC01ED91E6
:10177000FC910284F385E02D0995F0CF0895CF9375
:10178000DF93EC0181E492E00E94740B81EE91E022
:101790000E945806882391F164EF71E080E090E0A8
:1017A0000E94C4030E94AE0B87E392E00E94740B78
:1017B00084E792E00E94850B83E392E00E94740B21
:1017C0008FE792E00E9458068823C1F068EE73E02C
:1017D00080E090E00E94C403CE010E94850B64EF7C
:1017E00071E080E090E00E94C4038AE10E947608E4
:1017F00081EE91E0DF91CF910C94580680E0DF916B
:10180000CF9108958DE191E090932104809320047D
:1018100080E294E00C942603CF93DF93CDB7DEB73C
:10182000EA970FB6F894DEBF0FBECDBF789484B5AB
:10183000826084BD84B5816084BD85B5826085BDCC
:1018400085B5816085BD80916E00816080936E005A
:10185000109281008091810082608093810080914C
:1018600081008160809381008091800081608093FD
:1018700080008091B10084608093B1008091B000BD
:1018800081608093B00080917A00846080937A00B8
:1018900080917A00826080937A0080917A008160E2
:1018A00080937A0080917A00806880937A00109209
:1018B000C100E0916C03F0916D0382E08083E091C0
:1018C0006803F09169031082E0916A03F0916B0361
:1018D0008FEC808310927403E0917003F091710398
:1018E00086E08083E0916E03F0916F0380818061D8
:1018F0008083E0916E03F0916F0380818860808324
:10190000E0916E03F0916F03808180688083E091A5
:101910006E03F0916F0380818F7D8083E0910404DA
:10192000F0910504138615861486DF011B96339605
:101930001E92AE17BF07E1F71092030411E0BE013B
:101940006F5F7F4F80910404909105040E94260AE6
:10195000882309F44AC067E0CE0101960E9450092D
:1019600098858913ECCF8091FF03811127C0809166
:101970000404909105040E94F009BE016F5F7F4F3F
:1019800080910404909105040E949F0940E064EB5B
:1019900080910404909105040E945D0980910404E3
:1019A000909105040E94CC09082F80910404909125
:1019B00005040E94F009002309F408C40091000402
:1019C000CE0101960E941E09801718F48091000430
:1019D00004C0CE0101960E941E09809300048091EC
:1019E00003048F5F80930304AACF60E082E892E053
:1019F0000E94B60A811104C085E491E00E94D007DC
:101A000082E892E00E941E09893009F49DC0BE015F
:101A10006F5F7F4F82E892E00E94E307882309F41A
:101A200093C080918202803109F48EC08FE18D8352
:101A300080910404909105040E94F00962E872E02C
:101A400080910404909105040E949F0940E06EE497
:101A500080910404909105040E945D0940E06B812F
:101A600080910404909105040E945D0940E06C811E
:101A700080910404909105040E945D098091820286
:101A8000803141F040E06D81809104049091050423
:101A90000E945D0980910404909105040E94F00960
:101AA00062E872E080910404909105040E949F090D
:101AB0004091FF0368E480910404909105040E9422
:101AC0005D0964E170E080E090E00E94C4038091D1
:101AD000FF03882331F06AE070E080E090E00E942C
:101AE000C40380910404909105040E94F009809140
:101AF0000004893008F489E080930004893021F1E2
:101B000089E08093000400E010E08091030490E0FD
:101B100008171907CCF4602FCE01C1960E94B60AAF
:101B2000F0900004CE01C1960E941E098F1518F492
:101B30008091000404C0CE01C1960E941E098093CA
:101B400000040F5F1F4FE1CF89E691E00E94D007AC
:101B500062E083E594E00E942D07B8E64B2E552401
:101B6000539410E4312E3E0140E2640E711CCE010C
:101B7000C1969AAF89AF40916B0450916C046A0191
:101B8000550FEE08FF08F7FE0EC06DE28CE593E0FE
:101B90000E94990144275527BA014C195D096E0925
:101BA0007F092AE003C02AE0B701A6018CE593E093
:101BB0000E94690463EE71E08CE593E00E94540496
:101BC00080916B0490916C04009749F450926C04DE
:101BD00040926B04109252031092510305C001977A
:101BE00090936C0480936B040E94D006811122C0F4
:101BF00061E089E00E94880360E089E00E943C0384
:101C000068EE73E080E090E00E94C40361E089E048
:101C10000E943C0360ED77E080E090E00E94C40306
:101C200060E089E00E943C0368EB7BE080E090E0AC
:101C30000E94C40330927C0080917A00806480937B
:101C40007A0080917A0086FDFCCF10917800009197
:101C500079008BE791E00E94D007612F70E0702B34
:101C6000072E000C880B990B0E94C61220E030E072
:101C700040EA5BE30E94251320E030E040EA50E4B4
:101C80000E94251320E030E0A9010E94BF128111BB
:101C900030C060E27FEB82E090E00E94C4031092CB
:101CA00000018DE891E00E94D007809151038111DD
:101CB00020C00E94D00681110DC068EE73E080E064
:101CC00090E00E94C4036BE971E08CE593E00E9410
:101CD0005404EFCF88EA91E00E94D0078AEB91E0AC
:101CE0000E94D0078EEC91E00E94BF0B81E08093B0
:101CF000510381E890E00E94740B8E010F5F1F4F2B
:101D0000F8011192E615F705E1F76EE170E0CE01FA
:101D100001960E94EC056EED71E0CE0101960E94E5
:101D20005B15892B41F062E370E080E090E00E9457
:101D3000C40380E031C081EE91E00E94580688E63D
:101D400090E00E94740BD8011D928D01E9ADFAADAF
:101D5000AE17BF07C1F76FE270E0CE0101960E9497
:101D6000EC0566EE71E0CE0101960E945B15892BB1
:101D700091F06AE370E0CE0101960E9450158C014B
:101D8000892B49F081EE91E00E945806C801019626
:101D90000E94641201C08FEF082F880F110B10935F
:101DA000500300934F03101611060CF0DBC08DB6E4
:101DB0009EB64DB75EB7405F51090FB6F8945EBF4F
:101DC0000FBE4DBF8DB79EB701967C0186EA90E0AD
:101DD0000E94740B81EE91E00E94580668EE73E059
:101DE00080E090E00E94C4038DE990E00E94740BB3
:101DF0004AE0BE016F5F7F4FC8010E948212CE0190
:101E000001960E94850B8AE990E00E94740BF7010D
:101E1000C70180519F4F1192E817F907E1F760EF72
:101E200070E0C7010E94EC056DEE71E0C7010E94F1
:101E30005B157C01009709F461C06CE270E00E94C0
:101E400050158C010E5F1F4F62E270E0C8010E94C6
:101E500050150097A1F0A801E2EAF2E08A019F0183
:101E6000225A32404817590730F44F5F5F4FD8016C
:101E70002C912193F3CFF901EE55FD4F10826CE2C6
:101E800070E0C8010E9450156CE270E001960E945B
:101E900050158C010E5F1F4F62E270E0C8010E9476
:101EA0005015009781F0F801AAE8B2E09D012A5888
:101EB0003240E817F90718F421912D93F7CFF90173
:101EC000E657FD4F108263EE71E0C7010E945B157B
:101ED0000097A1F0FC013296AFEAB2E020E030E0DA
:101EE00081918D3039F02F39310521F02F5F3F4F2F
:101EF0008D93F6CFF901E155FD4F10820FB6F8949E
:101F00009EBE0FBE8DBE00914F031091500384EB17
:101F100090E00E94740B4AE0BE016F5F7F4FC801E2
:101F20000E948212CE0101960E94850B82EB90E006
:101F30000E94740B81EE91E00E94580664EF71E0FC
:101F40008CE593E00E94540482EA92E00E94D0075C
:101F500062E072E08CE593E00E9454048FEA92E024
:101F60000E94D00780910404909105040E94F0091A
:101F700040E06CEC80910404909105040E945D099E
:101F80004091FF0364E480910404909105040E9451
:101F90005D09809101048823D9F1E0910004E950A2
:101FA000E33040F4F0E0EE0FFF1FEF5FFE4F0081E3
:101FB000118102C00EEE12E080910204882311F11B
:101FC0008091FF0381111EC00E94FE034B015C0142
:101FD0006801110FEE08FF08809104049091050438
:101FE0000E94CC098130A1F00E94FE03DC01CB01EC
:101FF0008C199D09AE09BF0988159905AA05BB056D
:1020000058F306C0B801110F880B990B0E94C40346
:10201000BE016F5F7F4F82E892E00E94E307882352
:1020200061F16981B8E06B9FB00111248A81282F8A
:1020300030E0322F2227330F330F330F262B372B6D
:10204000809182028031E1F4688570E08F81FB012C
:10205000E81BF109CF019695982F882797958795CA
:102060000E94FB1460517109207F53E0220F331F3F
:102070005A95E1F7620F731F04C060E874EE01C067
:10208000B9016138F4EE7F077CF0072E000C880B55
:10209000990B0E94C61220E030E040E05CE30E9411
:1020A00025134B015C0106C0812C912C8EEFA82ECC
:1020B00082ECB82E85E192E00E94D00722E0B501C3
:1020C000A4018CE593E00E94B20463EE71E08CE51C
:1020D00093E00E9454048BE292E00E94D00783E4D4
:1020E00092E00E94D00722E0B501A4018CE593E0C4
:1020F0000E94B20461E083E594E00E94710B8BE3DF
:102100009FE10197F1F7E1E0809166048111E0E041
:10211000E195F0E0ED5AFB4F6489606883E594E057
:102120000E94710B63E472E083E594E00E94540422
:10213000E0916604E23010F4E15001C0E1E0F0E02B
:10214000ED5AFB4F6489606883E594E00E94710B4F
:1021500022E0B501A40183E594E00E94B20420E0EE
:1021600030E040E551E4C501B4010E94BF1287FF91
:1021700024C080915203811120C00E94D006811199
:102180000DC068EE73E080E090E00E94C4036BE94C
:1021900071E08CE593E00E945404EFCF88EA91E06F
:1021A0000E94D0078AEB91E00E94D00781E592E07F
:1021B0000E94BF0B81E08093520368E873E180E0E6
:1021C00090E00E94C4030E94A002D5CC1093FF03AC
:1021D000F5CBCF92DF92EF92FF9210925F031092B5
:1021E0005E0338EEC32E33E0D32EE12CF12CC092E7
:1021F0006003D0926103E0926203F09263038BE08C
:1022000091E090935D0380935C0385EC90E0909364
:1022100069038093680384EC90E090936B03809350
:102220006A0380EC90E090936D0380936C0381ECE3
:1022300090E090936F0380936E0382EC90E0909314
:1022400071038093700386EC90E090937303809306
:102250007203109275031092760310927703109216
:10226000780388E691E090936C0480936B0410925D
:102270005604109255048FE291E090935404809399
:1022800053048CE0809357048FEF809358048BE0C5
:102290008093590485E080935A0484E080935B0422
:1022A00083E080935C0482E080935D0410925E047E
:1022B00010925F0410926004109261041092620404
:1022C00061E083E594E00E942D07109223041092B0
:1022D0002204C0922404D0922504E0922604F092B5
:1022E00027048DE191E090932104809320041092C3
:1022F0003704109236041092390410923804109268
:102300003B0410923A0410923D0410923C046091F8
:102310003E046E7F6D7F60933E046695617081E040
:10232000682788E00E943C0361E088E00E948803FF
:10233000E7E2F1E0E491E0933004E3E1F1E0E491DD
:10234000F0E0EE0FFF1FE950FF4F859194919093BD
:1023500032048093310460E087E00E94880380911A
:102360003E0481FD04C061E087E00E943C0380E2FE
:1023700094E027E020932C04E6E2F1E0E491E0937E
:102380002D04E2E1F1E0E491F0E0EE0FFF1FEF5FDA
:10239000FE4F2591349130932F0420932E04909377
:1023A0006E0480936D049093FE038093FD038DE98A
:1023B00091E090933D0480933C042DEB30E030930A
:1023C0003704209336042BE931E03093390420930D
:1023D00038042CE231E030933B0420933A042091FE
:1023E00068002460209368002DE630E030933404C8
:1023F0002093330420E8209335040197F1F780916E
:10240000FB039091FC0324E080329207E1F00097F7
:1024100011F00E94260380913E048E7F80933E043B
:102420001092FA031092F90380E294E09093FC0377
:102430008093FB03E0913304F09134049081809108
:102440003504892B808360E08DE00E948803ECE2F4
:10245000F1E0E491E0931204E8E1F1E0E491F0E0CE
:10246000EE0FFF1FEF5FFE4F859194919093140440
:102470008093130410921D0410921F0410921E04E6
:10248000EDE1F4E0129284E0E531F807D9F786E453
:1024900098E0909311048093100482E194E090936B
:1024A000050480930404109203041092FF0389E052
:1024B0008093000481E08093010480930204FF90E4
:1024C000EF90DF90CF900895FC0188279927E8943A
:1024D00021912032E9F3293010F02E30C8F32B324D
:1024E00041F02D3239F4689404C00E948D12820F9D
:1024F000911D219120532A30C0F31EF490958195AF
:102500009F4F0895BB274A3031F4992322F4BDE24E
:10251000909581959F4F0C9496127AE0979F902DFD
:10252000879F802D910D11240895BB27FB0155270E
:10253000AA27880F991FAA1FA41710F0A41B839520
:102540005051B9F7A05DAA3308F0A95DA193009797
:1025500079F7B111B1931192CB010C94AF12DC0158
:10256000FC01672F71917723E1F7329704C07C91CA
:102570006D9370836291AE17BF07C8F308950E94F0
:10258000011308F481E00895E89409C097FB3EF434
:1025900090958095709561957F4F8F4F9F4F9923B0
:1025A000A9F0F92F96E9BB279395F695879577952E
:1025B0006795B795F111F8CFFAF4BB0F11F460FFEE
:1025C0001BC06F5F7F4F8F4F9F4F16C0882311F046
:1025D00096E911C0772321F09EE8872F762F05C05A
:1025E000662371F096E8862F70E060E02AF09A95F5
:1025F000660F771F881FDAF7880F9695879597F9EA
:102600000895990F0008550FAA0BE0E8FEEF161683
:102610001706E807F907C0F012161306E407F507D6
:1026200098F0621B730B840B950B39F40A2661F04A
:10263000232B242B252B21F408950A2609F4A140ED
:10264000A6958FEF811D811D08950E9438130C946B
:10265000A9130E949B1338F00E94A21320F0952327
:1026600011F00C9492130C94981311240C94DD1314
:102670000E94BA1370F3959FC1F3950F50E0551F58
:10268000629FF001729FBB27F00DB11D639FAA27C7
:10269000F00DB11DAA1F649F6627B00DA11D661F16
:1026A000829F2227B00DA11D621F739FB00DA11D37
:1026B000621F839FA00D611D221F749F3327A00DF1
:1026C000611D231F849F600D211D822F762F6A2F8D
:1026D00011249F5750409AF0F1F088234AF0EE0FF2
:1026E000FF1FBB1F661F771F881F91505040A9F71F
:1026F0009E3F510580F00C9492130C94DD135F3FC4
:10270000E4F3983ED4F3869577956795B795F7955A
:10271000E7959F5FC1F7FE2B880F911D96958795D2
:1027200097F9089597F99F6780E870E060E0089551
:102730009FEF80EC089500240A94161617061806D9
:102740000906089500240A941216130614060506B5
:102750000895092E0394000C11F4882352F0BB0F46
:1027600040F4BF2B11F460FF04C06F5F7F4F8F4FA9
:102770009F4F089557FD9058440F551F59F05F3FE4
:1027800071F04795880F97FB991F61F09F3F79F093
:1027900087950895121613061406551FF2CF469515
:1027A000F1DF08C0161617061806991FF1CF869597
:1027B0007105610508940895E894BB27662777277B
:1027C000CB0197F908955058BB27AA270E94FB1305
:1027D0000C94A9130E949B1338F00E94A21320F0BE
:1027E00039F49F3F19F426F40C9498130EF4E095F5
:1027F000E7FB0C949213E92F0E94BA1358F3BA170F
:10280000620773078407950720F079F4A6F50C9406
:10281000DC130EF4E0950B2EBA2FA02D0B01B9019D
:1028200090010C01CA01A0011124FF27591B99F046
:10283000593F50F4503E68F11A16F040A22F232F52
:10284000342F4427585FF3CF469537952795A795A2
:10285000F0405395C9F77EF41F16BA0B620B730B49
:10286000840BBAF09150A1F0FF0FBB1F661F771FBA
:10287000881FC2F70EC0BA0F621F731F841F48F46F
:10288000879577956795B795F7959E3F08F0B0CFF8
:102890009395880F08F09927EE0F979587950895DF
:1028A0000E9464140C94A9130E94A21358F00E9471
:1028B0009B1340F029F45F3F29F00C9492135111BF
:1028C0000C94DD130C9498130E94BA1368F39923A7
:1028D000B1F3552391F3951B550BBB27AA2762171C
:1028E0007307840738F09F5F5F4F220F331F441F29
:1028F000AA1FA9F335D00E2E3AF0E0E832D091505D
:102900005040E695001CCAF72BD0FE2F29D0660F49
:10291000771F881FBB1F261737074807AB07B0E88C
:1029200009F0BB0B802DBF01FF2793585F4F3AF092
:102930009E3F510578F00C9492130C94DD135F3F89
:10294000E4F3983ED4F3869577956795B795F79518
:102950009F5FC9F7880F911D9695879597F9089500
:10296000E1E0660F771F881FBB1F6217730784079C
:10297000BA0720F0621B730B840BBA0BEE1F88F7AB
:10298000E09508950E94C21388F09F5798F0B92FE0
:102990009927B751B0F0E1F0660F771F881F991F94
:1029A0001AF0BA95C9F714C0B13091F00E94DC1347
:1029B000B1E008950C94DC13672F782F8827B85F57
:1029C00039F0B93FCCF3869577956795B395D9F7EC
:1029D0003EF490958095709561957F4F8F4F9F4FF6
:1029E00008950E94011308F48FEF08950E940113C7
:1029F000880B990B089597FB072E16F4009407D0C7
:102A000077FD09D00E94311507FC05D03EF4909562
:102A100081959F4F0895709561957F4F0895A1E22C
:102A20001A2EAA1BBB1BFD010DC0AA1FBB1FEE1F48
:102A3000FF1FA217B307E407F50720F0A21BB30B93
:102A4000E40BF50B661F771F881F991F1A9469F70F
:102A500060957095809590959B01AC01BD01CF016B
:102A60000895AA1BBB1B51E107C0AA1FBB1FA617D5
:102A7000B70710F0A61BB70B881F991F5A95A9F727
:102A800080959095BC01CD010895EE0FFF1F059034
:102A9000F491E02D099481E090E0F8940C94751580
:102AA000FC018191861721F08823D9F79927089591
:102AB0003197CF010895FB0151915523A9F0BF0132
:102AC000DC014D9145174111E1F759F4CD01019019
:102AD000002049F04D9140154111C9F3FB0141110E
:102AE000EFCF81E090E00197089511E0C8E2D1E0D6
:102AF00004C0FE010E9445152196C932D107C9F7CD
:042B0000F894FFCF77
:102B0400015E00BC007701000000003702A001CF85
:102B1400017E020002DE01F201000000009C08A018
:102B240001CC019B08F00853018308000000006BEE
:102B34000BA001CC01CB0168016E616E00696E6669
:102B4400006F766600556E61626C6520746F206656
:102B5400696E64206164647265737320666F7220A9
:102B640044657669636520300053657474696E67E3
:102B7400207570206C63642E2E2E00436865636B91
:102B8400696E6720766F6C746167652E00566F6C92
:102B94007461676520697320302E00696E69742042
:102BA4006572726F720D0A006770727320696E69C4
:102BB4007420737563636573730073656E64696E03
:102BC40067206D657373616765202E2E2E00427237
:102BD400616B207A6173696C616E69612E004F4B81
:102BE400004F4B0D0A002B434D474C3A002B434DED
:102BF40047523A0046726F6D206E756D6265723A87
:102C040020005265636965766564204D6573736160
:102C140067653A2000436865636B696E6720746575
:102C24006D70657261747572652E005072696E7490
:102C3400696E672074656D70657261747572652E56
:102C44002E2E0054656D70657261747572613A2040
:102C54000054656D7065726174757261207A6120CB
:102C64006E69736B612E002B4350494E3A205245D6
:102C7400414459002B363037353730333636003E31
:022C840000004E
:00000001FF
