:100000000C94A6010C94CE010C94CE010C94E8083B
:100010000C94E8080C94E8080C94CE010C94CE01E2
:100020000C94CE010C94CE010C94CE010C94CE0114
:100030000C94CE010C94CE010C94CE010C94CE0104
:100040000C94F2030C94CE010C94A4050C947E0540
:100050000C94CE010C94CE010C94CE010C94CE01E4
:100060000C94CE010C94CE0100407A10F35A00A0FB
:10007000724E18090010A5D4E80000E87648170071
:1000800000E40B54020000CA9A3B000000E1F505B1
:10009000000080969800000040420F000000A086FB
:1000A00001000000102700000000E803000000002D
:1000B0006400000000000A000000000001000000D1
:1000C00000002C76D888DC674F0823DFC1DFAE59EB
:1000D000E1B1B796E5E3E453C63AE651997696E87E
:1000E000E6C28426EB898C9B62ED407C6FFCEFBC02
:1000F0009C9F40F2BAA56FA5F490055A2AF75C932D
:100100006B6CF9676DC11BFCE0E40D47FEF520E662
:10011000B500D0ED902E0300943577050080841E45
:10012000080000204E0A000000C80C333333330FA0
:10013000986E12831141EF8D2114893BE65516CF3D
:10014000FEE6DB18D1844B381BF77C1D901DA4BB49
:10015000E424203284725E228100C9F124ECA1E5FE
:100160003D2741542B434D474C3D2252454320559A
:100170004E52454144222C310D0A0041542B434D2F
:10018000474C3D2252454320554E52454144222C76
:10019000310D0A000D0A0041542B434D47523D00DA
:1001A00041542B434D47463D310D0A000D0041544B
:1001B0002B434D47443D0000000000240027002A47
:1001C0000000000008000201000003040700000016
:1001D0000000000000005EBCE2613FDD83C29C7E47
:1001E00020A3FD1F419DC3217FFCA2401E5F01E3B0
:1001F000BD3E6082DC237D9FC1421CFEA0E1BF5D4D
:100200000380DE3C62BEE0025CDF81633D7C22C095
:100210009E1D43A1FF4618FAA427799BC584DA38AE
:1002200066E5BB5907DB856739BAE406581947A567
:10023000FB7826C49A653BD987045AB8E6A7F91B10
:1002400045C6987A24F8A6441A99C7257B3A64864D
:10025000D85B05E7B98CD2306EEDB3510F4E10F27A
:10026000AC2F7193CD114FADF3702ECC92D38D6F17
:1002700031B2EC0E50AFF1134DCE90722C6D33D1E4
:100280008F0C52B0EE326C8ED0530DEFB1F0AE4CFD
:100290001291CF2D73CA947628ABF517490856B43E
:1002A000EA6937D58B5709EBB536688AD495CB29DF
:1002B00077F4AA4816E9B7550B88D6346A2B759798
:1002C000C94A14F6A8742AC896154BA9F7B6E80AC5
:1002D00054D7896B35220D0A0041542B434D4753A7
:1002E0003D220041542B434D47463D310D0A00410C
:1002F000542B4350494E3F0D0A0041542B43465561
:100300004E3D310D0A0041540D0A00000000002549
:100310000028002B00000000002300260029000414
:10032000040404040404040202020202020303039C
:100330000303030102040810204080010204081096
:1003400020010204081020001E13760D11241FBE88
:10035000CFEFD8E0DEBFCDBF25E0A8EDB2E001C011
:100360001D92A930B207E1F712E0A0E0B1E0E6EF9C
:10037000F8E302C005900D92A83DB107D9F711E04E
:10038000C5EAD1E004C02197FE010E94371AC43AA1
:10039000D107C9F70E94800D0C946E1C0C940000CC
:1003A0000895DC01ED91FC910190F081E02D09941C
:1003B000CF92DF92EF92FF920F931F93CF93DF9331
:1003C0006C017A018B01C0E0D0E0CE15DF0589F029
:1003D000D8016D918D01D601ED91FC910190F081D4
:1003E000E02DC6010995892B11F47E0102C02196EA
:1003F000ECCFC701DF91CF911F910F91FF90EF904C
:10040000DF90CF900895089580E090E00895FC017A
:10041000538D448D252F30E0842F90E0821B930B69
:10042000541710F0CF96089501970895FC01918D0F
:10043000828D981761F0828DDF01A80FB11D5D9646
:100440008C91928D9F5F9F73928F90E008958FEFB4
:100450009FEF0895FC01918D828D981731F0828D68
:10046000E80FF11D858D90E008958FEF9FEF0895BF
:10047000FC01918D228D892F90E0805C9F4F821B23
:1004800091098F739927089582EF93E00E943802B3
:1004900021E0892B09F420E0822F0895FC01848D4E
:1004A000DF01A80FB11DA35ABF4F2C91848D90E09E
:1004B00001968F739927848FA689B7892C93A08979
:1004C000B1898C9180648C93938D848D981306C030
:1004D0000288F389E02D80818F7D80830895EF92DB
:1004E000FF920F931F93CF93DF93EC0181E0888FEE
:1004F0009B8D8C8D981305C0E889F989808185FDD5
:1005000024C0F62E0B8D10E00F5F1F4F0F731127C5
:10051000E02E8C8DE8120CC00FB607FCFACFE889EC
:10052000F989808185FFF5CFCE010E944E02F1CF7F
:100530008B8DFE01E80FF11DE35AFF4FF0820B8F08
:10054000EA89FB898081806207C0EE89FF89608328
:10055000E889F98980818064808381E090E0DF917F
:10056000CF911F910F91FF90EF900895CF93DF935C
:10057000EC01888D8823C9F0EA89FB89808185FD9B
:1005800005C0A889B9898C9186FD0FC00FB607FCFC
:10059000F5CF808185FFF2CFA889B9898C9185FF3D
:1005A000EDCFCE010E944E02E7CFDF91CF910895AB
:1005B00080E090E0892B29F00E94440281110C9484
:1005C0000000089580E480937C0080917A0080642C
:1005D00080937A0080917A0086FDFCCF609178004C
:1005E0008091790070E0782B072E000C880B990B16
:1005F0000E94811720E030E040EA5BE30E94E017B0
:1006000020E030E040EA50E40E94E01708950E94A4
:10061000341C0F931F93CF93DF93EC018881998152
:10062000009729F02A813B812617370788F48B0130
:100630006F5F7F4F0E946A1B009761F099838883E8
:100640001B830A832C813D81232B11F4FC01108232
:1006500081E001C080E0DF91CF911F910F9108955B
:10066000CF93DF93EC0188819981009711F00E946C
:10067000D21A198218821D821C821B821A82DF9173
:10068000CF910895EF92FF920F931F93CF93DF9333
:10069000EC01FB0184819581E080F1800C811D815A
:1006A000E114F104B1F00097B9F0080F191FB80177
:1006B000CE010E940903882361F0288139818C8151
:1006C0009D81B701820F931F0E944D1C1D830C83D7
:1006D00003C0CE010E943003CE01DF91CF911F9164
:1006E0000F91FF90EF900895CF92DF92EF92FF92DB
:1006F0000F931F93CF93DF93CDB7DEB7A1970FB6BC
:10070000F894DEBF0FBECDBF7C01CB01BA01F7016B
:1007100011821082138212821582148242E0420FEB
:100720008E010F5F1F4F0E9499146C01009771F0AA
:10073000FC0101900020E9F731978F01081B190B8C
:10074000B801C7010E940903811104C0C7010E94BA
:10075000300308C0F70115830483B60180819181BD
:100760000E944D1CA1960FB6F894DEBF0FBECDBF00
:10077000DF91CF911F910F91FF90EF90DF90CF907D
:1007800008953FB7F8948091AE039091AF03A09184
:10079000B003B091B10326B5A89B05C02F3F19F057
:1007A0000196A11DB11D3FBFBA2FA92F982F8827F1
:1007B000820F911DA11DB11DBC01CD0142E0660F4C
:1007C000771F881F991F4A95D1F708952FB7F8947E
:1007D0006091AA037091AB038091AC039091AD033B
:1007E0002FBF08951F920F920FB60F9211242F93CF
:1007F0003F938F939F93AF93BF938091AA03909160
:10080000AB03A091AC03B091AD033091A90323E0F9
:10081000230F2D3720F40196A11DB11D05C026E838
:10082000230F0296A11DB11D2093A9038093AA0353
:100830009093AB03A093AC03B093AD038091AE0350
:100840009091AF03A091B003B091B1030196A11DA7
:10085000B11D8093AE039093AF03A093B003B09308
:10086000B103BF91AF919F918F913F912F910F90C5
:100870000FBE0F901F9018956115710579F0FB015F
:1008800001900020E9F73197AF01461B570BDC01BF
:10089000ED91FC910280F381E02D099480E090E0DD
:1008A00008954F925F926F927F92EF92FF920F9313
:1008B0001F93CF93DF93CDB7DEB7A1970FB6F89410
:1008C000DEBF0FBECDBF7C01FA01CB0119A22230E1
:1008D00008F42AE08E010F5D1F4F422E512C612C2F
:1008E000712CBF01A30192010E94011AF901CA01F2
:1008F000015011096A3014F4605D01C0695CD801CF
:100900006C93232B242B252B61F7B801C7010E9480
:100910003C04A1960FB6F894DEBF0FBECDBFDF91A9
:10092000CF911F910F91FF90EF907F906F905F900C
:100930004F9008954F925F926F927F928F929F9205
:10094000AF92BF92CF92DF92EF92FF92CF93DF935D
:10095000EC016A017B01B22E9A01AB01C701B6011D
:100960000E94E819882319F06FE371E027C026017F
:100970003701E89477F82FEF3FEF4FE75FE7C301C8
:10098000B2010E94E81981110DC02FEF3FEF4FE730
:100990005FE7C301B2010E947A1718161CF463E4E2
:1009A00071E00CC02FEF3FEF4FE75FE4C701B601E6
:1009B0000E94E31918169CF467E471E0CE01DF9100
:1009C000CF91FF90EF90DF90CF90BF90AF909F902E
:1009D0008F907F906F905F904F900C943C042FEF1E
:1009E0003FEF4FE75FECC701B6010E947A1787FD22
:1009F000E3CF20E030E0A901C701B6010E947A17D9
:100A000087FF0AC06DE2CE010E94D1014C01F7FAC6
:100A1000F094F7F8F09402C0812C912CA12C60E0A6
:100A200070E080E09FE3AB1441F020E030E040E272
:100A300051E40E944219A394F6CF9B01AC01C70177
:100A4000B6010E94D6182B013C010E94B4196B011B
:100A50007C010E947F179B01AC01C301B2010E947F
:100A6000D5182B013C012AE0B701A601CE010E9456
:100A700051047C01E80CF91CBB2031F06EE2CE0180
:100A80000E94D101E80EF91EDB2CDD2029F120E0C7
:100A900030E040E251E4C301B2010E94E0172B01B3
:100AA0003C010E94B4194B01A12CB12C2AE0B501E4
:100AB000A401CE010E945104E80EF91EC501B40143
:100AC0000E947F179B01AC01C301B2010E94D5189F
:100AD0002B013C01DA94D9CFC701DF91CF91FF9070
:100AE000EF90DF90CF90BF90AF909F908F907F90CE
:100AF0006F905F904F9008950C943C041F920F925A
:100B00000FB60F9211242F933F934F935F936F93E0
:100B10007F938F939F93AF93BF93EF93FF9382EF56
:100B200093E00E944E02FF91EF91BF91AF919F9190
:100B30008F917F916F915F914F913F912F910F9086
:100B40000FBE0F901F9018951F920F920FB60F9225
:100B500011242F938F939F93EF93FF93E0910204BF
:100B6000F09103048081E0910804F091090482FD72
:100B700012C0908180910B048F5F8F7320910C04C1
:100B8000821751F0E0910B04F0E0EE50FC4F958F8E
:100B900080930B0401C08081FF91EF919F918F9111
:100BA0002F910F900FBE0F901F9018950895FC0184
:100BB00090810180F281E02D892F809560FF12C025
:100BC000F8942281822382838181892B8183A3E20D
:100BD000B0E01197F1F78281982B9283789487ED9A
:100BE00090E011C0F8942281822382838181892B35
:100BF0008183AFEFB0E01197F1F78281982B928358
:100C000078948FE090E00197F1F70895A091930414
:100C1000B0919404ED91FC9111970190F081E02D39
:100C2000682FCD01099420919104309192042817E6
:100C3000390771F490918F0480919004981741F0D6
:100C4000E0918F04F0E0EE54FC4F808190E0089535
:100C50008FEF9FEF089508951F93CF93DF93DC01EB
:100C60005C962D913C915D972115310539F481E019
:100C700090E013969C938E9312973DC05196ED9100
:100C8000FC91529750969C915097892F80951FB751
:100C90005E964C915E9741FB772770F941FD609518
:100CA000F8944081772311F0492B01C048234083F9
:100CB000E9012197F1F748E0508160FF02C0592B0C
:100CC00001C058235083E9012197F1F766954150FF
:100CD00099F7772321F090818923808303C0808155
:100CE000982B90831FBF5C968D919C915D97019787
:100CF000F1F721E030E0C901DF91CF911F91089514
:100D000020919104309192042817390771F4809151
:100D1000900420918F0490E0805C9F4F821B91098A
:100D200060E470E00E94ED19089580E090E008957D
:100D3000209191043091920428173907B9F49091C9
:100D40008F0480919004981789F0E0918F04F0E06F
:100D5000EE54FC4F808120918F0430E02F5F3F4F95
:100D60002F73332720938F0490E008958FEF9FEF28
:100D70000895CF93DF93CDB7DEB729970FB6F894D8
:100D8000DEBF0FBECDBFFC0120812031D1F0BE01FE
:100D90006F5F7F4F0E94130D882389F08D818F3301
:100DA00061F020F48F3159F489E00CC08F3519F0CF
:100DB0008F3739F004C08BE005C08AE003C080E0C3
:100DC00001C08CE029960FB6F894DEBF0FBECDBFF0
:100DD000DF91CF910895CF93DF93FC01448155813A
:100DE0006081718182EF93E00E94D801EC016FE392
:100DF00072E082EF93E00E943C048C0F9D1FDF9114
:100E0000CF910895DC01E0E0615038F08D91E82742
:100E1000F0E0EB52FE4FE491F7CF8E2F0895CF9282
:100E2000DF92EF92FF920F931F93CF93DF931F9266
:100E3000CDB7DEB76C01E62E08E010E0FF24F39496
:100E400061E08F2D8E2109F460E0C60149830E9484
:100E5000D705FF0C0150110949810115110581F7D2
:100E6000411115C0F894D6011196ED91FC9112979D
:100E700091818C918095892381831196ED91FC91CC
:100E8000129792818C9180958923828378940F9018
:100E9000DF91CF911F910F91FF90EF90DF90CF9056
:100EA0000895CF92DF92EF92FF920F931F93CF930B
:100EB000DF931F92CDB7DEB78C01F62E40E065E5DB
:100EC00079830E940F07CF2C7981D72E760188E095
:100ED000E80EF11CF60161916F0140E0C8010E942B
:100EE0000F07CE14DF04B1F70F90DF91CF911F9160
:100EF0000F91FF90EF90DF90CF900895FC019081CB
:100F00000180F281E02DF8948181892B81832281F7
:100F1000892F809528232283A7E0B0E01197F1F76D
:100F2000218182238183A3E2B0E01197F1F78081D0
:100F30007894EFECF0E03197F1F7982381E009F431
:100F400080E00895FC0190810180F281E02DF89409
:100F50008181292F20958223818378948DE743E036
:100F600050E0815021F1DA011197F1F730813923F6
:100F7000C1F3F8948281822382838181892B8183CA
:100F80007894ABE7B7E01197F1F7F89481812823C3
:100F90002183A3E1B1E01197F1F78081982381E0EB
:100FA00009F080E07894E3E6F6E03197F1F70895F0
:100FB000AF92BF92CF92DF92EF92FF920F931F9367
:100FC000CF93DF931F92CDB7DEB75C01D62EE72E0D
:100FD000FC018585811105C0C5010E94A207811110
:100FE00006C0F50113861586148680E065C040E0D2
:100FF00060EFC5010E940F0701E0F12CC12C11E048
:10100000C5010E947E07682FC50169830E947E0783
:101010006981613019F48130B9F433C04F2D50E04B
:1010200068131BC0F5018385181730F4E40FF51F12
:101030008381802349F402C0181731F060E0193031
:1010400058F4F501148708C0F501EF0DF11D8381F7
:10105000802B838361E009C0C12EF501E40FF51FE9
:101060009381802F809589238383C5010E94D705B2
:101070001F5F000F11F4F39401E0F7E0FF1508F093
:10108000BFCF113408F4ADCFF501C386C11002C043
:1010900081E08587F5018381882309F4A2CFD501FA
:1010A0001396ED2DFE2D9501255F3F4F8D91819378
:1010B000A217B307D9F781E00F90DF91CF911F916D
:1010C0000F91FF90EF90DF90CF90BF90AF90089579
:1010D0000F931F93CF93DF938C01D62FE0919A0447
:1010E000F0919B04138615861486DF011B963396B8
:1010F0001E92AE17BF07E1F7C0E0B80180919A04D5
:1011000090919B040E94D807811102C080E010C01A
:10111000CD130AC067E0C8010E940207F801978159
:10112000891302C081E004C0CF5FDC1778F3E5CFFC
:10113000DF91CF911F910F910895CF93DF93FC0121
:101140002491EC012196222331F0FC0184910E942C
:101150000606CE01F4CFDF91CF9108950F931F9330
:10116000CF93DF93EC018C01FE0101900020E9F7A1
:101170003197EC1BFD0BC8018C1B9D0B8E179F0735
:1011800030F4F80181918F010E940606EDCFDF91C6
:10119000CF911F910F9108958091930490919404A1
:1011A000DC01ED91FC910084F185E02D09940E9411
:1011B000CC08892B61F08091930490919404DC0118
:1011C000ED91FC910284F385E02D0995F0CF08950F
:1011D0001F920F920FB60F9211242F933F934F93AC
:1011E0005F936F937F938F939F93AF93BF93EF938F
:1011F000FF93E0919104F0919204309709F451C06B
:10120000968DA685B785858591FF04C09C9189231D
:1012100029F447C09C91892309F043C0A389B4896C
:101220009C918589809589238C93868997890197DC
:10123000F1F7608D718DA685B785558538E020E082
:10124000CB010197F1F7822F90E095958795282F94
:101250004C91452309F02068315091F7868D81FD2E
:1012600020958091900490E001968F73992730919A
:101270008F04381749F0A0919004B0E0AE54BC4FF1
:101280002C938093900403C0868D8160868F828D1D
:10129000938D0197F1F7A389B4899C918589892B56
:1012A0008C93FF91EF91BF91AF919F918F917F911F
:1012B0006F915F914F913F912F910F900FBE0F90C3
:1012C0001F901895E0919104F0919204E817F907A6
:1012D00069F4A389B4899C918589809589238C932D
:1012E000109292041092910481E0089580E0089594
:1012F00090E0FC01EF53FE4F3491FC01ED5CFC4F9C
:101300002491FC01E15EFC4FE491EE2309F43BC023
:10131000332339F1333091F038F43130A9F03230E1
:1013200001F584B58F7D12C0373091F03830A1F0CF
:101330003430B9F4809180008F7D03C080918000AB
:101340008F77809380000DC084B58F7784BD09C0EE
:101350008091B0008F7703C08091B0008F7D809323
:10136000B000F0E0EE0FFF1FE55FFC4FA591B491D8
:101370008FB7F894EC91611103C020952E2301C022
:101380002E2B2C938FBF0895CF93DF93EC0160E059
:101390008E810E94780961E08E810E94780960E068
:1013A0008E810E9478098BE891E00197F1F7DF9137
:1013B000CF910895CF92DF92EF92FF920F931F93F8
:1013C000CF93DF937C016C0187E0C80ED11CC0E095
:1013D000D0E0062F10E0B8010C2E02C0759567957D
:1013E0000A94E2F76170F60181916F010E94780919
:1013F0002196C430D10579F7C701DF91CF911F91B4
:101400000F91FF90EF90DF90CF900C94C409CF9292
:10141000DF92EF92FF920F931F93CF93DF93EC0134
:10142000F62E642F8C810E9478098D818F3F19F0F0
:1014300060E00E9478098F850F2D10E084FF25C0A1
:101440006E0187E0C80ED11CE12CF12CB8010E2CE6
:1014500002C0759567950A94E2F76170F601819173
:101460006F010E947809FFEFEF1AFF0A88E0E81683
:10147000F10461F7CE01DF91CF911F910F91FF90A1
:10148000EF90DF90CF900C94C409B80184E075957B
:1014900067958A95E1F7CE010E94DA096F2DCE019A
:1014A000DF91CF911F910F91FF90EF90DF90CF9040
:1014B0000C94DA0941E00E94070A81E090E0089567
:1014C00040E00C94070ACF93DF9390E0FC01ED5CC1
:1014D000FC4F2491FC01E15EFC4F8491882361F173
:1014E00090E0880F991FFC01E954FE4FC591D491FB
:1014F000FC01E55FFC4FA591B491611109C09FB754
:10150000F8948881209582238883EC912E230BC048
:10151000623061F49FB7F8943881822F80958323DD
:101520008883EC912E2B2C939FBF06C08FB7F89425
:10153000E8812E2B28838FBFDF91CF9108958F9262
:101540009F92AF92BF92CF92DF92EF92FF926B0188
:101550007C010E94C1034B015C01C114D104E10470
:10156000F104F1F00E94C103DC01CB018819990953
:10157000AA09BB09883E9340A105B10570F321E09B
:10158000C21AD108E108F10888EE880E83E0981E9F
:10159000A11CB11CC114D104E104F10419F7DDCF81
:1015A000FF90EF90DF90CF90BF90AF909F908F9083
:1015B0000895CF93DF93EC0183EE92E00E949D08A3
:1015C0008DE392E00E94880B882391F164EF71E033
:1015D00080E090E00E949F0A0E94D70889ED92E087
:1015E0000E949D088EEB92E00E94AE0885ED92E08D
:1015F0000E949D0888EC92E00E94880B8823C1F02D
:1016000068EE73E080E090E00E949F0ACE010E94A5
:10161000AE0864EF71E080E090E00E949F0A8AE1EA
:101620000E9406068DE392E0DF91CF910C94880B27
:1016300080E0DF91CF9108954F925F926F927F92F9
:101640009F92AF92BF92CF92DF92EF92FF920F9351
:101650001F93CF93DF935C018B010E94E6032B0164
:101660003C01C12CD12C7601C0E0D0E00E94CC0816
:10167000892BD9F08091930490919404DC01ED9131
:10168000FC910284F385E02D0995982E0E94E603D3
:101690006B017C019E012F5F3F4FCA0DDB1D9882BD
:1016A000201731072CF5E901E1CFC017D10704F568
:1016B0000E94E603DC01CB0184199509A609B7094C
:1016C00089389341A105B10598F40E94E603DC0135
:1016D000CB018C199D09AE09BF09893B9B40A1052F
:1016E000B10520F2C114D104E104F10409F4BECF24
:1016F000DF91CF911F910F91FF90EF90DF90CF90EE
:10170000BF90AF909F907F906F905F904F900895A3
:101710004F925F926F927F929F92AF92BF92CF92C1
:10172000DF92EF92FF920F931F93CF93DF935C01B1
:10173000EC0109900020E9F72197C81BD90B0E9402
:10174000E6032B013C01C12CD12C760100E010E016
:101750000E94CC08892BF1F080919304909194041D
:10176000DC01ED91FC910284F385E02D0995982E22
:101770000E94E6036B017C01F501E00FF11F8081FF
:10178000891103C00F5F1F4F02C000E010E00C176B
:101790001D0719F10E94E603DC01CB0184199509AC
:1017A000A609B70989389341A105B10510F080E079
:1017B00017C00E94E603DC01CB018C199D09AE091C
:1017C000BF09893B9B40A105B10510F2C114D104AA
:1017D000E104F10409F4BCCFEACF0E94D70881E00C
:1017E000DF91CF911F910F91FF90EF90DF90CF90FD
:1017F000BF90AF909F907F906F905F904F900895B3
:10180000DF92EF92FF920F931F93CF93DF93CDB7A9
:10181000DEB7A0970FB6F894DEBF0FBECDBF86E04F
:1018200093E00E949D088DE392E00E94880B88233C
:10183000A1F18AEF92E00E949D088DE392E00E9460
:10184000880B182F882349F1FE013196CE0181962D
:101850000E2FDF2E1192E817F907E1F783E0E82E4B
:10186000F12C8FEE92E00E949D0860E270E0802FE4
:101870009D2D0E941C0B6AEC72E0802F9D2D0E9412
:10188000541C892B59F46CE271E080E090E00E94D6
:101890009F0A81E0E81AF10821F710E0812FA09655
:1018A0000FB6F894DEBF0FBECDBFDF91CF911F9171
:1018B0000F91FF90EF90DF900895EF92FF920F93BA
:1018C0001F93CF93DF93EC01623018F08F8588600F
:1018D0008F876B8B1C8A80E48D8B80E18E8B80E5FB
:1018E0008F8B61E08C810E94630A8D818F3F19F09C
:1018F00061E00E94630A61E08E810E94630A7E01BA
:1019000087E0E80EF11C00E010E08F8584FD03C045
:1019100084E090E002C088E090E0081719074CF4DA
:1019200061E0F70181917F010E94630A0F5F1F4F01
:10193000ECCF8BE39DE00197F1F760E08C810E9492
:10194000780960E08E810E9478098D818F3F19F0BF
:1019500060E00E9478096F8564FD1DC063E0CE01E0
:101960000E94DA090BE416E4C8010197F1F763E07D
:10197000CE010E94DA09C8010197F1F763E0CE01B8
:101980000E94DA0983E592E00197F1F762E0CE0167
:101990000E94DA0916C06062CE010E94600A8BE4E0
:1019A00096E40197F1F76F856062CE010E94600AAC
:1019B00083E592E00197F1F76F856062CE010E94A6
:1019C000600A6F856062CE010E94600A84E0888BA5
:1019D0006CE0CE010E94600A61E0CE010E94600AC4
:1019E0008BE39FE10197F1F782E0898B66E0CE01FE
:1019F000DF91CF911F910F91FF90EF900C94600AAF
:101A0000CF93DF93BC0182EF93E00E943C04EC0192
:101A10006FE372E082EF93E00E943C048C0F9D1F05
:101A2000DF91CF9108958F929F92AF92BF92CF9204
:101A3000DF92EF92FF920F931F93CF93DF938C016E
:101A4000EB0180919A0490919B040E94A207882345
:101A500009F43DC0B80180919A0490919B040E94C2
:101A6000510740E06EEB80919A0490919B040E9494
:101A70000F078E015E0189E0A80EB11C80909A04C8
:101A800090909B0488E0C82ED12CEE24E394F12C96
:101A9000C4010E947E078111FE28EE0CE1E0CE1AFF
:101AA000D108B1F7F801F1928F01EA15FB0531F782
:101AB00080919A0490919B040E94A207813039F48E
:101AC00068E0CE010E94020791E02885821390E031
:101AD000892FDF91CF911F910F91FF90EF90DF90B1
:101AE000CF90BF90AF909F908F90089583E291E048
:101AF0009093B7048093B60486EB94E00C9462094B
:101B0000CF93DF93CDB7DEB7E8970FB6F894DEBF7B
:101B10000FBECDBF789484B5826084BD84B58160EA
:101B200084BD85B5826085BD85B5816085BD8091A8
:101B30006E00816080936E00109281008091810020
:101B40008260809381008091810081608093810018
:101B5000809180008160809380008091B1008460DA
:101B60008093B1008091B00081608093B00080913B
:101B70007A00846080937A0080917A0082608093FA
:101B80007A0080917A00816080937A0080917A0057
:101B9000806880937A001092C100E0910204F09175
:101BA000030482E08083E091FE03F091FF03108242
:101BB000E0910004F09101048FEC808310920A04FC
:101BC000E0910604F091070486E08083E09104042C
:101BD000F0910504808180618083E0910404F0919C
:101BE0000504808188608083E0910404F0910504FD
:101BF000808180688083E0910404F09105048081F5
:101C00008F7D8083E0919A04F0919B041386158662
:101C10001486DF011B9633961E92AE17BF07E1F7BD
:101C20001092990411E0BE016F5F7F4F80919A047A
:101C300090919B040E94D807882309F44AC067E06A
:101C4000CE0101960E94020798858913ECCF8091FE
:101C50009504811127C080919A0490919B040E9461
:101C6000A207BE016F5F7F4F80919A0490919B0401
:101C70000E94510740E064EB80919A0490919B048C
:101C80000E940F0780919A0490919B040E947E0706
:101C9000082F80919A0490919B040E94A207002330
:101CA00009F4C9C400919604CE0101960E94B906B8
:101CB000801718F48091960404C0CE0101960E940A
:101CC000B90680939604809199048F5F809399045C
:101CD000AACF60E088ED92E00E946808811104C0FC
:101CE0008BE491E00E94000D88ED92E00E94B9061D
:101CF0008E010F5C1F4F893009F49BC0BE016F5FDE
:101D00007F4F88ED92E00E94130D882309F491C063
:101D10008091D802803109F48CC08FE18D8380914D
:101D20009A0490919B040E94A20768ED72E0809152
:101D30009A0490919B040E94510740E06EE48091C8
:101D40009A0490919B040E940F0740E06B81809160
:101D50009A0490919B040E940F0740E06C8180914F
:101D60009A0490919B040E940F078091D8028031C1
:101D700041F040E06D8180919A0490919B040E9413
:101D80000F0780919A0490919B040E94A20768ED2E
:101D900072E080919A0490919B040E9451074091B7
:101DA000950468E480919A0490919B040E940F0727
:101DB00064E170E080E090E00E949F0A80919504C9
:101DC000882331F06AE070E080E090E00E949F0A92
:101DD00080919A0490919B040E94A207809196049E
:101DE000893008F489E080939604893011F189E004
:101DF00080939604E12CF12C8091990490E0E816F0
:101E0000F906BCF46E2DC8010E946808D0909604B3
:101E1000C8010E94B9068D1518F48091960403C07C
:101E2000C8010E94B906809396044FEFE41AF40AA1
:101E3000E3CF8FE691E00E94000D62E089EE94E02E
:101E40000E945D0CB8E66B2E772473945E0150E21D
:101E5000A50EB11CC0900105D09002050D2C000C00
:101E6000EE08FF08F7FE0EC06DE282EF93E00E94DD
:101E7000D10144275527BA014C195D096E097F0924
:101E80002AE003C02AE0B701A60182EF93E00E9496
:101E900051046FE372E082EF93E00E943C04809172
:101EA000010590910205009739F470920205609245
:101EB00001051092A80305C0019790930205809335
:101EC00001050E94000C811122C061E089E00E949E
:101ED000630A60E089E00E94780968EE73E080E0C0
:101EE00090E00E949F0A61E089E00E94780960ED1D
:101EF00077E080E090E00E949F0A60E089E00E9425
:101F0000780968EB7BE080E090E00E949F0A0E94E5
:101F1000E202AB01BC0122E0C8010E9474031A82F4
:101F200019821C821B821E821D8264E170E0CE0138
:101F300001960E940903811105C0CE0101960E94FD
:101F400030030AC084E190E09E838D8361E871E0F4
:101F500089819A810E944D1CB801CE0101960E9490
:101F600042030E94EB0689819A810E94D21A0E9444
:101F7000E20220E030E0A9010E947A178111B8C086
:101F800086E991E00E94000DE091FC04E23010F43B
:101F9000E15001C0E1E0F0E0E751FB4F6489606887
:101FA00089EE94E00E94600A67EB71E089EE94E0AC
:101FB0000E947C0560E177E280E090E00E949F0A49
:101FC00087EC91E00E94000D0E94E20220E030E0E8
:101FD000A9010E947A17811187C0109200010E9406
:101FE000E202AB01BC0122E0CE0101960E94740323
:101FF00089A99AA90097A9F069817A81611571056B
:1020000071F04BA95CA92D813E814217530738F02E
:102010000E944D1C8D819E819EAB8DAB12C00E9493
:10202000D21A89819A819AAB89AB8B819C819CABB6
:102030008BAB8D819E819EAB8DAB1A8219821C82E7
:102040001B821E821D8289819A810E94D21A1A8265
:1020500019821C821B821E821D8264E170E0CE0107
:1020600001960E940903811105C0CE0101960E94CC
:1020700030030AC084E190E09E838D8361E871E0C3
:1020800089819A810E944D1CB801CE0101960E945F
:1020900042030E94EB0689819A810E94D21A8091A4
:1020A000A703811162C00E94000C81110DC068EE6F
:1020B00073E080E090E00E949F0A62ED71E082EFA1
:1020C00093E00E947C05EFCF8FED91E00E94000D20
:1020D00081EF91E00E94000D87EB91E00E94D90A08
:1020E00081E08093A70341C081E0809300013DC05F
:1020F000E091FC04E23010F4E15001C0E1E0F0E0D6
:10210000E751FB4F6489606889EE94E00E94600AA1
:1021100065E072E089EE94E00E947C058091A7035F
:10212000882319F185E192E00E94000D0E94000CC5
:1021300081110DC068EE73E080E090E00E949F0A7C
:1021400062ED71E082EF93E00E947C05EFCF8FEDAE
:1021500091E00E94000D81EF91E00E94000D87E266
:1021600092E00E94D90A1092A7038BE791E00E94A7
:102170009D08CE0101967C01FC011192EA15FB0538
:10218000E1F76EE170E0CE0101960E941C0B6AE35C
:1021900072E0CE0101960E94541C892B41F062E34B
:1021A00070E080E090E00E949F0A80E02FC08DE305
:1021B00092E00E94880B82E691E00E949D08D70180
:1021C0001D927D01A017B107D1F76FE270E0CE013B
:1021D00001960E941C0B62E472E0CE0101960E94FF
:1021E000541C892B91F06AE370E0CE0101960E94A5
:1021F000421C7C01892B49F08DE392E00E94880B00
:10220000C70101960E94B91401C08FEFE82E880F14
:10221000FF08F092A603E092A5031E141F040CF021
:10222000D8C08DB69EB6EDB7FEB7E05FF1090FB628
:10223000F894FEBF0FBEEDBF4DB75EB74F5F5F4F67
:102240006A0180EA91E00E949D088DE392E00E947D
:10225000880B68EE73E080E090E00E949F0A87E9B7
:1022600091E00E949D084AE0BE016F5F7F4FC70169
:102270000E94D714CE0101960E94AE0884E991E035
:102280000E949D08F601C60180519F4F1192E817E8
:10229000F907E1F760EF70E0C6010E941C0B69E4EA
:1022A00072E0C6010E94541C6C01009709F45DC0E5
:1022B0006CE270E00E94421C02967C0162E270E0D7
:1022C0000E94421C0097A1F0A701E8EFF2E07A011A
:1022D0009F01285F32404817590730F44F5F5F4F26
:1022E000D7012C912193F3CFF901E850FD4F1082D3
:1022F0006CE270E0C7010E94421C6CE270E0019643
:102300000E94421C02967C0162E270E00E94421C24
:10231000009781F0F701A0EEB2E09D01205E32400F
:10232000E817F90718F421912D93F7CFF901E0523E
:10233000FD4F10826FE372E0C6010E94541C0097AB
:10234000A1F0FC013296A5E0B3E020E030E08191FD
:102350008D3039F02F39310521F02F5F3F4F8D93AC
:10236000F6CFF901EB5FFC4F10820FB6F8949EBEDA
:102370000FBE8DBEE090A503F090A6038EEA91E01B
:102380000E949D084AE0BE016F5F7F4FC7010E9417
:10239000D714CE0101960E94AE088CEA91E00E940B
:1023A0009D088DE392E00E94880B60E572E082EF69
:1023B00093E00E947C0588EF92E00E94000D6EE59C
:1023C00072E082EF93E00E947C0585E093E00E943A
:1023D000000D80919A0490919B040E94A20740E016
:1023E0006CEC80919A0490919B040E940F0740919D
:1023F000950464E480919A0490919B040E940F07D5
:10240000809197048823E9F1E0919604E950E33044
:1024100040F4F0E0EE0FFF1FE95FFE4FC080D18077
:1024200004C0FEEECF2EF2E0DF2E809198048823C8
:1024300011F18091950481111EC00E94E6031B01D9
:102440002C010D2C000CEE08FF0880919A0490914D
:102450009B040E947E078130A1F00E94E603DC010C
:10246000CB018C199D09AE09BF0982159305A405FE
:10247000B50558F306C0B601DD0C880B990B0E9418
:102480009F0ABE016F5F7F4F88ED92E00E94130D9F
:10249000882361F16981B8E06B9FB00111248A81C2
:1024A000282F30E0322F2227330F330F330F262B04
:1024B000372B8091D8028031E1F4688570E08F81FC
:1024C000FB01E81BF109CF019695982F8827979576
:1024D00087950E94ED1960517109207F53E0220F0A
:1024E000331F5A95E1F7620F731F04C060E874EE62
:1024F00001C0B9016138F4EE7F077CF0072E000CB3
:10250000880B990B0E94811720E030E040E05CE3EB
:102510000E94E0176B017C0106C0C12CD12C8EEF0C
:10252000E82E82ECF82E81E792E00E94000D22E076
:10253000B701A60182EF93E00E949A046FE372E074
:1025400082EF93E00E943C0487E892E00E94000D35
:102550008FE992E00E94000D22E0B701A60182EF10
:1025600093E00E949A04E1E08091FC048111E0E094
:10257000E195F0E0E751FB4F6489606889EE94E0F3
:102580000E94600A6FE972E089EE94E00E947C0587
:1025900022E0B701A60189EE94E00E949A0463E16B
:1025A00072E089EE94E00E947C056FED89EE94E084
:1025B0000E94D10166EA72E089EE94E00E947C05F7
:1025C00020E030E040E551E4C701B6010E947A17EF
:1025D00087FF24C08091A803811120C00E94000CB5
:1025E00081110DC060E177E280E090E00E949F0AD7
:1025F00062ED71E082EF93E00E947C05EFCF8FEDFA
:1026000091E00E94000D81EF91E00E94000D88EAA8
:1026100092E00E94D90A81E08093A80368E873E100
:1026200080E090E00E949F0A89A99AA90E94D21A8C
:102630000E94D8020FCC1093950434CBCF92DF9236
:10264000EF92FF921092F5031092F40338EEC32E2E
:1026500033E0D32EE12CF12CC092F603D092F70395
:10266000E092F803F092F90381E191E09093F30393
:102670008093F20385EC90E09093FF038093FE0338
:1026800084EC90E0909301048093000480EC90E04F
:10269000909303048093020481EC90E090930504EE
:1026A0008093040482EC90E09093070480930604E6
:1026B00086EC90E0909309048093080410920B0438
:1026C00010920C0410920D0410920E0488E691E012
:1026D00090930205809301051092EC041092EB0494
:1026E00085E391E09093EA048093E9048CE0809381
:1026F000ED048FEF8093EE048BE08093EF0485E090
:102700008093F00484E08093F10483E08093F204EA
:1027100082E08093F3041092F4041092F504109276
:10272000F6041092F7041092F80461E089EE94E048
:102730000E945D0C1092B9041092B804C092BA04C1
:10274000D092BB04E092BC04F092BD0483E291E01D
:102750009093B7048093B6041092CD041092CC04E9
:102760001092CF041092CE041092D1041092D00493
:102770001092D3041092D2046091D4046E7F6D7FC6
:102780006093D4046695617081E0682788E00E94B8
:10279000780961E088E00E94630AEBE3F3E0E491EA
:1027A000E093C604E7E2F3E0E491F0E0EE0FFF1FF0
:1027B000E55FFC4F859194919093C8048093C70482
:1027C00060E087E00E94630A8091D40481FD04C028
:1027D00061E087E00E94780986EB94E027E020938F
:1027E000C204EAE3F3E0E491E093C304E6E2F3E039
:1027F000E491F0E0EE0FFF1FEB5EFC4F259134916A
:102800003093C5042093C40490930405809303057A
:1028100090939404809393048DE991E09093D30472
:102820008093D2042DEB30E03093CD042093CC0480
:102830002BE931E03093CF042093CE042CE231E039
:102840003093D1042093D004209168002460209319
:1028500068002DE630E03093CA042093C90420E8D4
:102860002093CB040197F1F7809191049091920409
:1028700024E0863B9207E1F0009711F00E94620984
:102880008091D4048E7F8093D4041092900410928F
:102890008F0486EB94E09093920480939104E091EE
:1028A000C904F091CA0490818091CB04892B808364
:1028B00060E08DE00E94630AE0E4F3E0E491E093DD
:1028C000A804ECE2F3E0E491F0E0EE0FFF1FEB5E12
:1028D000FC4F859194919093AA048093A90410923F
:1028E000B3041092B5041092B404E3EBF4E0129236
:1028F00084E0EB3AF807D9F786ED95E09093A704CA
:102900008093A60488EA94E090939B0480939A04B1
:10291000109299041092950489E08093960481E0C6
:102920008093970480939804FF90EF90DF90CF906E
:102930000895EF920F931F93CF93DF93E80147FD24
:1029400002C034E001C034E1E42F440FFF0BF7FF75
:1029500003C0F195E195F109E32E022F2E2FAE0170
:102960000E940415CE01DF91CF911F910F91EF903E
:102970000895FC0188279927E89421912032E9F3F2
:10298000293010F02E30C8F32B3241F02D3239F4BB
:10299000689404C00E94E214820F911D219120537B
:1029A0002A30C0F31EF4909581959F4F0895BB2760
:1029B0004A3031F4992322F4BDE2909581959F4FDE
:1029C0000C94EB147AE0979F902D879F802D910DAA
:1029D00011240895BB27FB015527AA27880F991FAB
:1029E000AA1FA41710F0A41B83955051B9F7A05D3E
:1029F000AA3308F0A95DA193009779F7B111B193BB
:102A00001192CB010C946A174F925F926F927F9252
:102A10009F92AF92BF92CF92DF92EF92FF920F936D
:102A20001F93CF93DF93CDB7DEB729970FB6F894F6
:102A3000DEBF0FBECDBF6A01122FB02E2BE32017D1
:102A400020F0FF24F394F00E02C0BCE3FB2E0F2D08
:102A500027E0AE014F5F5F4F0E949216AC01898163
:102A6000982F9970913031F0E1FC06C0E0FE06C06D
:102A700090E205C09DE203C09BE201C090E0EE2D14
:102A8000E07183FF3CC0911102C083E001C084E08B
:102A9000811718F4212F281B01C020E0E1110BC081
:102AA000F601822F30E2882319F031938150FBCF59
:102AB000C20ED11C20E0992329F0D6019C93F60187
:102AC00031966F01C6010396E2FE0AC03EE4D601CC
:102AD0003C9341E411964C93119712963C9306C097
:102AE0003EE6F601308341E641833283FC01322F1A
:102AF00040E2332309F442C041933150FACF82FFC0
:102B000044C0911102C083E001C084E0811718F431
:102B1000212F281B01C020E0E1110BC0F601822FFC
:102B200030E2882319F031938150FBCFC20ED11CC3
:102B300020E0992329F0D6019C93F60131966F018C
:102B4000C6010396E2FE0BC039E4D6013C933EE495
:102B500011963C93119736E412963C9307C039E6E0
:102B6000F60130833EE6318336E63283FC01322FB4
:102B700040E2332319F041933150FBCFFC01E20FC7
:102B8000F11D10828EEF9FEFB7C0F1E0911101C0EF
:102B9000F0E06F2F70E01416150624F49A012F5FF1
:102BA0003F4F02C021E030E0260F371FBB2029F045
:102BB0006B2D70E06F5F7F4F02C060E070E0260F0A
:102BC000371F612F70E0261737071CF4121B212FC7
:102BD00001C020E03E2D387159F4D601322F60E259
:102BE000332319F06D933150FBCFC20ED11C20E07E
:102BF000FF2331F0D6019C93B6016F5F7F4F6B01CD
:102C0000E1110BC0F601922F30E3992319F03193B3
:102C10009150FBCFC20ED11C20E09F2D940F3A8122
:102C2000782F7071A72E84FF03C0313309F49150BF
:102C3000191624F4993018F098E001C091E0E42FBF
:102C4000852F57FF02C0E0E080E06E2F782FE0E094
:102C5000F0E0AEE29A2E3A01691A71082A01461A8A
:102C6000570A0B2D10E01195019511096F3F8FEF59
:102C7000780729F4D6019C92C60101966C0146178B
:102C8000570784F0661677066CF47F01E40CF51C98
:102C9000A1E0B0E0AC0FBD1FEA0EFB1ED7011196FC
:102CA000BC9002C090E3B92E615071093196C60103
:102CB00001967C016017710724F0D601BC926C016B
:102CC000D5CF6417750741F4363320F4353321F43A
:102CD000A11002C081E3B82EF601B082F701822F65
:102CE00090E2882319F091938150FBCFF701E20F16
:102CF000F11D108280E090E029960FB6F894DEBFB7
:102D00000FBECDBFDF91CF911F910F91FF90EF903C
:102D1000DF90CF90BF90AF909F907F906F905F902B
:102D20004F900895283008F027E03327DA01990FF3
:102D3000311D87FD916000966105710539F432609F
:102D40002E5F3D9330E32A95E1F708959F3F30F0E1
:102D500080387105610509F03C5F3C5F3D9391301F
:102D600008F08068911DDF93CF931F930F93FF921C
:102D7000EF92192F987F9695E92F96959695E90FE2
:102D8000FF27EE53FF4F99273327EE24FF24A70197
:102D9000E70105900894079428F4360FE71EF81E03
:102DA000491F511D660F771F881F991F0694A1F7B1
:102DB0000590079428F4E70EF81E491F561FC11D01
:102DC000770F881F991F661F0694A1F70590079437
:102DD00028F4F80E491F561FC71FD11D880F991FD1
:102DE000661F771F0694A1F70590079420F4490FFA
:102DF000561FC71FD81F990F661F771F881F06947D
:102E0000A9F784911095177041F0D695C7955795FD
:102E10004795F794E7941A95C1F7E8E6F0E06894CF
:102E20001590159135916591959105907FE2739577
:102E3000E118F10A430B560BC90BD009C0F7E10C9E
:102E4000F11E431F561FC91FD01D7EF4703311F4AD
:102E50008A95E6CFE894015030F0080F0AF4002775
:102E6000021708F4202F2395022F7A3328F079E3F4
:102E70007D932A95E9F710C07D932A9589F60694EB
:102E800097956795379517951794E118F10A430BB5
:102E9000560BC90BD00998F023957E9173957A3320
:102EA00008F070E37C932013B8F77E9170617D93F6
:102EB00030F0839571E37D9370E32A95E1F7112457
:102EC000EF90FF900F911F91CF91DF91992787FD90
:102ED00090950895DC01FC01672F71917723E1F74C
:102EE000329704C07C916D9370836291AE17BF07D7
:102EF000C8F308950E94BC1708F481E00895E8948F
:102F000009C097FB3EF490958095709561957F4F31
:102F10008F4F9F4F9923A9F0F92F96E9BB279395DF
:102F2000F695879577956795B795F111F8CFFAF4EF
:102F3000BB0F11F460FF1BC06F5F7F4F8F4F9F4F20
:102F400016C0882311F096E911C0772321F09EE87E
:102F5000872F762F05C0662371F096E8862F70E0E4
:102F600060E02AF09A95660F771F881FDAF7880FBE
:102F70009695879597F90895990F0008550FAA0B14
:102F8000E0E8FEEF16161706E807F907C0F012167C
:102F90001306E407F50798F0621B730B840B950B7F
:102FA00039F40A2661F0232B242B252B21F40895D4
:102FB0000A2609F4A140A6958FEF811D811D089571
:102FC0000E94F3170C9464180E94561838F00E945F
:102FD0005D1820F0952311F00C944D180C945318A3
:102FE00011240C9498180E94751870F3959FC1F3E2
:102FF000950F50E0551F629FF001729FBB27F00DA7
:10300000B11D639FAA27F00DB11DAA1F649F6627FB
:10301000B00DA11D661F829F2227B00DA11D621F4A
:10302000739FB00DA11D621F839FA00D611D221F04
:10303000749F3327A00D611D231F849F600D211DE8
:10304000822F762F6A2F11249F5750409AF0F1F06B
:1030500088234AF0EE0FFF1FBB1F661F771F881FD4
:1030600091505040A9F79E3F510580F00C944D18A7
:103070000C9498185F3FE4F3983ED4F386957795C7
:103080006795B795F795E7959F5FC1F7FE2B880F7A
:10309000911D9695879597F9089597F99F6780E810
:1030A00070E060E008959FEF80EC089500240A949A
:1030B0001616170618060906089500240A94121613
:1030C0001306140605060895092E0394000C11F446
:1030D000882352F0BB0F40F4BF2B11F460FF04C0F3
:1030E0006F5F7F4F8F4F9F4F089557FD9058440F4C
:1030F000551F59F05F3F71F04795880F97FB991F57
:1031000061F09F3F79F08795089512161306140613
:10311000551FF2CF4695F1DF08C0161617061806A0
:10312000991FF1CF86957105610508940895E8947B
:10313000BB2766277727CB0197F908952F923F92F7
:103140004F925F926F927F928F929F92AF92BF92B7
:10315000CF92DF92EF92FF920F931F93CF93DF9363
:10316000CDB7DEB7CA1BDB0B0FB6F894DEBF0FBEC0
:10317000CDBF09942A88398848885F846E847D840D
:103180008C849B84AA84B984C884DF80EE80FD800F
:103190000C811B81AA81B981CE0FD11D0FB6F89485
:1031A000DEBF0FBECDBFED0108955058BB27AA2743
:1031B0000E94ED180C9464180E94561838F00E9472
:1031C0005D1820F039F49F3F19F426F40C9453183D
:1031D0000EF4E095E7FB0C944D18E92F0E9475184A
:1031E00058F3BA17620773078407950720F079F43C
:1031F000A6F50C9497180EF4E0950B2EBA2FA02D7F
:103200000B01B90190010C01CA01A0011124FF2793
:10321000591B99F0593F50F4503E68F11A16F0408E
:10322000A22F232F342F4427585FF3CF469537958D
:103230002795A795F0405395C9F77EF41F16BA0B52
:10324000620B730B840BBAF09150A1F0FF0FBB1F00
:10325000661F771F881FC2F70EC0BA0F621F731F49
:10326000841F48F4879577956795B795F7959E3FA6
:1032700008F0B0CF9395880F08F09927EE0F979537
:10328000879508950E9456190C9464180E945D1841
:1032900058F00E94561840F029F45F3F29F00C9432
:1032A0004D1851110C9498180C9453180E947518CD
:1032B00068F39923B1F3552391F3951B550BBB2765
:1032C000AA2762177307840738F09F5F5F4F220FAA
:1032D000331F441FAA1FA9F335D00E2E3AF0E0E8A1
:1032E00032D091505040E695001CCAF72BD0FE2FEB
:1032F00029D0660F771F881FBB1F2617370748077F
:10330000AB07B0E809F0BB0B802DBF01FF27935836
:103310005F4F3AF09E3F510578F00C944D180C9495
:1033200098185F3FE4F3983ED4F3869577956795B8
:10333000B795F7959F5FC9F7880F911D969587956B
:1033400097F90895E1E0660F771F881FBB1F62178A
:1033500073078407BA0720F0621B730B840BBA0B48
:10336000EE1F88F7E09508950E947D1888F09F571A
:1033700098F0B92F9927B751B0F0E1F0660F771F99
:10338000881F991F1AF0BA95C9F714C0B13091F08F
:103390000E949718B1E008950C949718672F782F22
:1033A0008827B85F39F0B93FCCF386957795679554
:1033B000B395D9F73EF490958095709561957F4FC0
:1033C0008F4F9F4F08950E94BC1708F48FEF089508
:1033D0000E94BC17880B990B089597FB072E16F4D3
:1033E000009407D077FD09D00E94231A07FC05D06E
:1033F0003EF4909581959F4F0895709561957F4F0C
:103400000895A1E21A2EAA1BBB1BFD010DC0AA1F25
:10341000BB1FEE1FFF1FA217B307E407F50720F03D
:10342000A21BB30BE40BF50B661F771F881F991FB8
:103430001A9469F760957095809590959B01AC0101
:10344000BD01CF010895AA1BBB1B51E107C0AA1FF4
:10345000BB1FA617B70710F0A61BB70B881F991F35
:103460005A95A9F780959095BC01CD010895EE0F6E
:10347000FF1F0590F491E02D0994CF93DF938230E4
:10348000910510F482E090E0E0910705F0910805C5
:1034900020E030E0C0E0D0E0309711F14081518170
:1034A00048175907C0F04817590761F48281938182
:1034B000209719F09B838A832BC0909308058093F3
:1034C000070526C02115310519F04217530718F4D6
:1034D0009A01BE01DF01EF010280F381E02DDCCF14
:1034E0002115310509F1281B390B2430310590F4E1
:1034F00012968D919C9113976115710521F0FB0136
:103500009383828304C09093080580930705FD018F
:10351000329644C0FD01E20FF31F81939193225034
:1035200031092D933C933AC0209105053091060551
:10353000232B41F4209103013091040130930605BF
:1035400020930505209101013091020121153105DB
:1035500041F42DB73EB74091050150910601241B5F
:10356000350BE0910505F0910605E217F307A0F48D
:103570002E1B3F0B2817390778F0AC014E5F5F4FC9
:103580002417350748F04E0F5F1F509306054093F0
:1035900005058193919302C0E0E0F0E0CF01DF9157
:1035A000CF9108950F931F93CF93DF93009709F462
:1035B0008CC0FC0132971382128200910705109192
:1035C00008050115110581F420813181820F931FB7
:1035D00020910505309106052817390779F5F093F4
:1035E0000605E093050571C0D80140E050E0AE1734
:1035F000BF0750F412962D913C911397AD01211500
:10360000310509F1D901F3CF9D01DA01338322831A
:1036100060817181860F971F8217930769F4EC010F
:1036200028813981260F371F2E5F3F4F318320833A
:103630008A819B8193838283452B29F4F09308052B
:10364000E093070542C01396FC93EE931297ED01A9
:10365000499159919E01240F351FE217F30771F428
:1036600080819181840F951F029611969C938E9371
:103670008281938113969C938E931297E0E0F0E001
:10368000D80112968D919C911397009719F0F8012B
:103690008C01F6CF8D919C9198012E5F3F4F820F48
:1036A000931F20910505309106052817390769F405
:1036B000309729F4109208051092070502C0138272
:1036C00012821093060500930505DF91CF911F919B
:1036D0000F910895A0E0B0E0E0E7FBE10C94A218A0
:1036E000EC01009721F4CB010E943D1AB8C0FC0107
:1036F000E60FF71F9C0122503109E217F30708F487
:10370000ACC0D9010D911C91119706171707B0F0A5
:103710000530110508F49FC0C80104978617970764
:1037200008F499C002501109061B170B019311935D
:103730006D937C93CF010E94D21A8DC05B01A01AB9
:10374000B10A4C01800E911EA0910705B0910805A9
:1037500040E050E0E12CF12C109709F44AC0A81584
:10376000B905D1F56D907C901197630182E0C80E88
:10377000D11CCA14DB0480F1A3014A195B096A0158
:1037800082E0C80ED11C1296BC9012971396AC9191
:10379000B5E0CB16D10440F0B282A38351834083BD
:1037A000D9016D937C930AC00E5F1F4FC301800F38
:1037B000911FF90191838083EB2DFA2FE114F1041D
:1037C00031F0D7011396FC93EE93129744C0F09317
:1037D0000805E09307053FC08D919C91119748170C
:1037E000590708F4AC017D0112960D90BC91A02DF3
:1037F000B3CF809105059091060588159905E1F4F0
:1038000046175707C8F48091010190910201009773
:1038100041F48DB79EB74091050150910601841B7C
:10382000950BE817F907C8F4F0930605E093050532
:10383000F901718360830FC0CB010E943D1A7C01A6
:10384000009759F0A801BE010E94391CCE010E94C8
:10385000D21AC70104C0CE0102C080E090E0CDB70B
:10386000DEB7EEE00C94BE1881E090E0F8940C9482
:103870006E1CFB01DC0102C001900D9241505040D2
:10388000D8F70895FC018191861721F08823D9F794
:10389000992708953197CF010895FB01DC0101902C
:1038A0000D920020E1F70895FB0151915523A9F0F5
:1038B000BF01DC014D9145174111E1F759F4CD01EC
:1038C0000190002049F04D9140154111C9F3FB01D1
:1038D0004111EFCF81E090E00197089511E0C5EA32
:1038E000D1E004C0FE010E94371A2196C63AD107E2
:0638F000C9F7F894FFCFB8
:1038F600010000090580005E00BC007701000000A1
:10390600006F02D8010702B602380216022A020028
:103916000000002C06D80104022B06800698061328
:1039260006000000005A0AD8010402030268016E6C
:10393600616E00696E66006F766600556E61626C38
:103946006520746F2066696E6420616464726573B5
:103956007320666F72204465766963652030005374
:10396600657474696E67207570206C63642E2E2EE4
:103976000043757272656E7420766F6C746167654C
:103986002069733A20004272616B207A6173696C18
:10399600616E69612E20437A656B616D206E6120D0
:1039A60064656C61792E004272616B207A6173697D
:1039B6006C616E69612E0044656C617920646F6E7E
:1039C6006500696E6974206572726F720D0A006710
:1039D60070727320696E697420737563636573739F
:1039E6000073656E64696E67206D657373616765E4
:1039F600202E2E2E005A6173696C616E6965204F08
:103A06004B2E2020005A6173696C616E69652077C0
:103A1600726F63696C6F005A6173696C616E696578
:103A26002077726F63696C6F2E004F4B004F4B0D02
:103A36000A002B434D474C3A002B434D47523A0060
:103A460046726F6D206E756D6265723A2000526522
:103A5600636965766564204D6573736167653A20B1
:103A660000436865636B696E672074656D70657287
:103A760061747572652E005072696E74696E672086
:103A860074656D70657261747572652E2E2E0054A4
:103A9600656D703A2000430054656D7065726174FF
:103AA600757261207A61206E69736B612E00363003
:103AB60037353730333636003E002B4350494E3AC1
:083AC600205245414459000063
:00000001FF
